:100000000C942A000C94D0110C94FD110C942A121B
:100010000C9447000C9447000C94520F0C9447002A
:100020000C9447000C9447000C948C0D0C94110D0B
:100030000C9447000C9447000C9447000C94470024
:100040000C9447000C9447000C9447000C94470014
:100050000C94470011241FBECFE5D8E0DEBFCDBF12
:1000600011E0A0E6B0E0E6EFF9EA02C005900D92DB
:10007000AA39B107D9F711E0AAE9B1E001C01D9290
:10008000A73CB107E1F70E948A520C94F9540C94F2
:100090000000EF92FF920F931F937B018C0120E0F1
:1000A00030E040E05FE40E94F50388238CF0C80153
:1000B000B70120E030E040E05FE40E94C1010E940F
:1000C000B3049B01AC01205030404040504806C072
:1000D000C801B7010E94B3049B01AC01B901CA0178
:1000E0001F910F91FF90EF900895A0E0B0E0EBE733
:1000F000F0E00C94C254DC012B01FA019C91923087
:1001000008F439C1EB018881823008F433C194309E
:1001100069F4843009F02FC111969C91119789815F
:10012000981709F428C1A9E7B0E025C1843009F483
:1001300021C18230A9F4923009F01DC19A01AD01AC
:1001400088E0EA010990AE01E90109929E0181501F
:10015000C1F7E201898111969C918923818308C1AD
:10016000923009F407C112962D903C901397EB0141
:100170008A819B811496AD90BD90CD90DC901797AD
:10018000EC80FD800E811F819101281B390BB90184
:1001900037FF04C066277727621B730B6032710537
:1001A0000CF061C0121613066CF537014801062EDB
:1001B00004C096948794779467940A94D2F721E0C8
:1001C00030E040E050E004C0220F331F441F551FB1
:1001D0006A95D2F721503040404050402E213F21B7
:1001E00040235123211531054105510521F021E01E
:1001F00030E040E050E079018A01E628F72808293C
:1002000019293CC0232BD1F1260E371E350146019A
:10021000062E04C096948794779467940A94D2F734
:1002200021E030E040E050E004C0220F331F441FC3
:10023000551F6A95D2F721503040404050402A2146
:100240003B214C215D21211531054105510521F04E
:1002500021E030E040E050E059016A01A628B728CB
:10026000C828D9280BC0821593052CF01C01AA249C
:10027000BB24650103C0EE24FF24870111969C91E5
:10028000D20111968C91981709F445C0992339F041
:10029000A80197012A193B094C095D0906C0A6016E
:1002A00095012E193F09400B510B57FD08C01182D3
:1002B0003382228224833583468357831DC081E0A5
:1002C00081833382228288279927DC01821B930B4A
:1002D000A40BB50B84839583A683B7830DC0220F2F
:1002E000331F441F551F24833583468357838281E0
:1002F000938101979383828324813581468157813D
:10030000DA01C9010197A109B1098F5F9F4FAF4F72
:10031000BF4328F30BC0918333822282EA0CFB1C7B
:100320000C1D1D1DE482F5820683178383E0808304
:10033000248135814681578157FF1AC0C901AA27F8
:1003400097FDA095BA2F81709070A070B0705695EF
:10035000479537952795822B932BA42BB52B848318
:100360009583A683B7838281938101969383828349
:10037000DF0101C0D201CD01CDB7DEB7E2E10C94BF
:10038000DE54A0E2B0E0E7ECF1E00C94CE546983D7
:100390007A838B839C832D833E834F835887E9E048
:1003A000EE2EF12CEC0EFD1ECE010196B7010E943F
:1003B000A4068E010F5E1F4FCE010596B8010E9464
:1003C000A4068A8991E089278A8BC701B801AE010A
:1003D000475E5F4F0E9475000E94CF05A096E6E041
:1003E0000C94EA54A0E2B0E0E8EFF1E00C94CE54B3
:1003F00069837A838B839C832D833E834F835887C5
:10040000F9E0EF2EF12CEC0EFD1ECE010196B701A6
:100410000E94A4068E010F5E1F4FCE010596B80103
:100420000E94A406C701B801AE01475E5F4F0E945B
:1004300075000E94CF05A096E6E00C94EA54A0E275
:10044000B0E0E5E2F2E00C94C25469837A838B83D6
:100450009C832D833E834F835887CE010196BE0136
:10046000675F7F4F0E94A406CE010596BE016F5EB6
:100470007F4F0E94A4069985923088F08989823046
:10048000C8F0943019F4823051F404C0843029F457
:10049000923081F489E790E0C6C0923049F420E0C0
:1004A0009A858A89981321E02A87CE010996BBC0D4
:1004B000823049F420E09A858A89981321E02A8BBA
:1004C000CE014196B0C02D843E844F8458886D88FB
:1004D0007E888F88988CEE24FF248701AA24BB2471
:1004E000650140E050E060E070E0E0E0F0E0C10174
:1004F00081709070892BE9F0E60CF71C081D191D1E
:100500009A01AB012A0D3B1D4C1D5D1D80E090E062
:10051000A0E0B0E0E614F7040805190520F481E036
:1005200090E0A0E0B0E0BA01A901480F591F6A1F8E
:100530007B1FAA0CBB1CCC1CDD1C97FE08C081E0F5
:1005400090E0A0E0B0E0A82AB92ACA2ADB2A3196B6
:10055000E032F10549F0660C771C881C991C569412
:10056000479437942794C3CFFA85EA892B893C892D
:100570008B859C85280F391F2E5F3F4F17C0CA01FE
:1005800081709070892B61F016950795F794E79428
:1005900080E090E0A0E0B0E8E82AF92A0A2B1B2BC3
:1005A00076956795579547952F5F3F4F77FDE7CF36
:1005B0000CC0440F551F661F771F17FD4160EE0CDE
:1005C000FF1C001F111F21503040403090E05907A0
:1005D00090E0690790E4790760F32B8F3C8FDB0193
:1005E000CA018F779070A070B07080349105A1051A
:1005F000B10561F447FD0AC0E114F10401051105DC
:1006000029F0405C5F4F6F4F7F4F40781A8EFE1786
:1006100011F081E08A8F4D8F5E8F6F8F78A383E01A
:10062000898FCE0149960E94CF05A096E2E10C94F5
:10063000DE54A8E1B0E0EFE1F3E00C94CA54698322
:100640007A838B839C832D833E834F835887B9E0C5
:10065000EB2EF12CEC0EFD1ECE010196B7010E948F
:10066000A4068E010F5E1F4FCE010596B8010E94B1
:10067000A4062985223008F47EC03989323010F46E
:10068000B8017CC08A859A8989278A87243011F02D
:10069000223031F4231709F06EC069E770E06EC0B4
:1006A000343039F41D861E861F86188A1C861B86E8
:1006B00004C0323021F484E08987B7015FC02B8504
:1006C0003C858B899C89281B390B3C872B87ED84C3
:1006D000FE840F851889AD88BE88CF88D88CEA142F
:1006E000FB040C051D0540F4EE0CFF1C001F111F40
:1006F000215030403C872B8720E030E040E050E044
:1007000080E090E0A0E0B0E460E070E0EA14FB0478
:100710000C051D0540F0282B392B4A2B5B2BEA18C2
:10072000FB080C091D09B695A79597958795EE0CC2
:10073000FF1C001F111F6F5F7F4F6F31710531F775
:10074000DA01C9018F779070A070B0708034910584
:10075000A105B10561F427FD0AC0E114F10401050A
:10076000110529F0205C3F4F4F4F5F4F20782D87B8
:100770003E874F87588BBE01675F7F4FCB010E943A
:10078000CF056896EAE00C94E654A8E1B0E0EBEC03
:10079000F3E00C94CE5469837A838B839C832D83FE
:1007A0003E834F83588789E0E82EF12CEC0EFD1E26
:1007B000CE010196B7010E94A4068E010F5E1F4F65
:1007C000CE010596B8010E94A4068985823040F0CA
:1007D0008989823028F0C701B8010E941C0701C036
:1007E0008FEF6896E6E00C94EA54A8E1B0E0EBEFF6
:1007F000F3E00C94CE5469837A838B839C832D839E
:100800003E834F83588789E0E82EF12CEC0EFD1EC5
:10081000CE010196B7010E94A4068E010F5E1F4F04
:10082000CE010596B8010E94A4068985823040F069
:100830008989823028F0C701B8010E941C0701C0D5
:100840008FEF6896E6E00C94EA54A8E1B0E0EBE2A2
:10085000F4E00C94CE5469837A838B839C832D833C
:100860003E834F83588789E0E82EF12CEC0EFD1E65
:10087000CE010196B7010E94A4068E010F5E1F4FA4
:10088000CE010596B8010E94A4068985823040F009
:100890008989823028F0C701B8010E941C0701C075
:1008A00081E06896E6E00C94EA54A8E0B0E0EBE55D
:1008B000F4E00C94CB549B01AC0183E08983DA0112
:1008C000C9018827B7FD83959927AA27BB27B82E8A
:1008D000211531054105510519F482E089833AC09B
:1008E0008823A9F0203080E0380780E0480780E8BE
:1008F000580729F460E070E080E09FEC30C0EE24FF
:10090000FF248701E21AF30A040B150B02C07901D8
:100910008A018EE1C82ED12CDC82CB82ED82FE8250
:100920000F831887C801B7010E9480050197181628
:10093000190684F4082E04C0EE0CFF1C001F111FC2
:100940000A94D2F7ED82FE820F831887C81AD90A5B
:10095000DC82CB82BA82CE0101960E94CF05289616
:10096000E9E00C94E754ACE0B0E0E9EBF4E00C947F
:10097000D25469837A838B839C83CE010196BE0116
:100980006B5F7F4F0E94A4068D81823061F18230BF
:1009900050F1843021F48E81882351F12EC02F81B3
:1009A000388537FD20C06E812F3131051CF066235C
:1009B000F9F023C08EE190E0821B930B29853A85E4
:1009C0004B855C8504C056954795379527958A9544
:1009D000D2F76623B1F050954095309521953F4F61
:1009E0004F4F5F4F0EC020E030E040E050E009C0C4
:1009F0002FEF3FEF4FEF5FE704C020E030E040E033
:100A000050E8B901CA012C96E2E00C94EE54A8E03B
:100A1000B0E0EDE0F5E00C94CA547B018C01611567
:100A200071058105910519F482E0898360C083E036
:100A300089838EE1C82ED12CDC82CB82ED82FE82AE
:100A40000F831887C801B7010E948005FC01319708
:100A5000F7FF3BC0222733272E1B3F0B57016801AE
:100A6000022E04C0D694C794B794A7940A94D2F7E0
:100A700040E050E060E070E081E090E0A0E0B0E0B5
:100A800004C0880F991FAA1FBB1F2A95D2F7019790
:100A9000A109B1098E219F21A023B1230097A105AF
:100AA000B10521F041E050E060E070E04A295B29A7
:100AB0006C297D294D835E836F8378878EE190E07A
:100AC0008E1B9F0B9C838B8312C0309781F00E2E60
:100AD00004C0EE0CFF1C001F111F0A94D2F7ED8218
:100AE000FE820F831887CE1ADF0ADC82CB821A823D
:100AF000CE0101960E94CF052896EAE00C94E654B8
:100B0000EF92FF920F931F937B018C0180E0E81618
:100B100080E0F80681E0080780E0180788F48FEF8E
:100B2000E816F1040105110531F028F088E090E0A5
:100B3000A0E0B0E017C080E090E0A0E0B0E012C01C
:100B400080E0E81680E0F80680E0080781E01807FA
:100B500028F088E190E0A0E0B0E004C080E190E0FF
:100B6000A0E0B0E020E230E040E050E0281B390B8C
:100B70004A0B5B0B04C016950795F794E7948A958A
:100B8000D2F7F701EF57FF4F8081281B3109410948
:100B90005109C9011F910F91FF90EF900895DF92C5
:100BA000EF92FF920F931F93FC01E480F580068182
:100BB0001781D1808081823048F480E090E0A0E10C
:100BC000B0E0E82AF92A0A2B1B2BA5C0843009F4CF
:100BD0009FC0823021F4EE24FF24870105C0E11478
:100BE000F1040105110519F4E0E0F0E096C062811E
:100BF00073819FEF623879070CF05BC022E83FEF0A
:100C0000261B370B2A3131052CF020E030E040E084
:100C100050E02AC0B801A701022E04C0769567955E
:100C2000579547950A94D2F781E090E0A0E0B0E0B4
:100C300004C0880F991FAA1FBB1F2A95D2F70197DE
:100C4000A109B1098E219F21A023B1230097A105FD
:100C5000B10521F081E090E0A0E0B0E09A01AB01A5
:100C6000282B392B4A2B5B2BDA01C9018F77907027
:100C7000A070B07080349105A105B10539F427FF4B
:100C800009C0205C3F4F4F4F5F4F04C0215C3F4F76
:100C90004F4F5F4FE0E0F0E02030A0E03A07A0E0E7
:100CA0004A07A0E45A0710F0E1E0F0E079018A0178
:100CB00027C06038710564F5FB01E158FF4FD8018A
:100CC000C7018F779070A070B07080349105A10536
:100CD000B10539F4E7FE0DC080E490E0A0E0B0E09B
:100CE00004C08FE390E0A0E0B0E0E80EF91E0A1F18
:100CF0001B1F17FF05C016950795F794E7943196CB
:100D000087E016950795F794E7948A95D1F705C083
:100D1000EE24FF248701EFEFF0E06E2F6795662742
:100D20006795902F9F77D794DD24D7948E2F869543
:100D3000492F462B582F5D29B701CA011F910F91EA
:100D4000FF90EF90DF900895FC01DB01408151811D
:100D50002281622F6F7770E0221F2227221F93814A
:100D6000892F880F822B282F30E0991F9927991FF0
:100D700011969C93119721153105A9F5411551053F
:100D80006105710511F482E037C082E89FEF139688
:100D90009C938E9312979A01AB0167E0220F331F49
:100DA000441F551F6A95D1F783E08C930DC0220F25
:100DB000331F441F551F12968D919C9113970197D5
:100DC00013969C938E931297203080E0380780E032
:100DD000480780E4580758F314962D933D934D939C
:100DE0005C93179708952F3F310579F4411551050C
:100DF0006105710519F484E08C93089564FF03C0C4
:100E000081E08C9312C01C9210C02F573040139673
:100E10003C932E93129783E08C9387E0440F551FE9
:100E2000661F771F8A95D1F7706414964D935D9372
:100E30006D937C93179708951F93DC01FB019C91A0
:100E4000923008F447C08081823008F443C0943067
:100E500051F411961C91843099F58181682F70E0CE
:100E6000611B71093FC0843021F0923031F482302F
:100E7000B9F18181882389F12DC011961C911197B8
:100E80008230F1F081811817D9F412962D913C919E
:100E90001397828193818217930794F0281739075B
:100EA000BCF014968D919D910D90BC91A02D248144
:100EB000358146815781281739074A075B0718F49F
:100EC000112341F00AC082179307A407B50740F425
:100ED000112319F061E070E005C06FEF7FEF02C0F1
:100EE00060E070E0CB011F910895DF93CF93CDB701
:100EF000DEB7A1E4B0E0E1E4F0E0808188608C93AB
:100F0000CF91DF910895DF93CF93CDB7DEB7A8954A
:100F1000CF91DF910895DF93CF9300D00F92CDB79B
:100F2000DEB789838981282F30E03B832A838A8139
:100F30009B818330910509F470C02A813B81243064
:100F4000310584F48A819B8181309105D1F12A8118
:100F50003B81223031050CF04AC08A819B81009789
:100F6000D1F0C8C02A813B812530310509F481C008
:100F70008A819B81853091050CF465C02A813B8173
:100F80002630310509F48BC08A819B818730910519
:100F900009F49BC0AFC0A1E4B0E0E1E4F0E08081DF
:100FA0008E7F8C93A1E4B0E0E1E4F0E080818D7F5E
:100FB0008C93A1E4B0E0E1E4F0E080818B7F8C933E
:100FC00099C0A1E4B0E0E1E4F0E0808181608C931D
:100FD000A1E4B0E0E1E4F0E080818D7F8C93A1E4B6
:100FE000B0E0E1E4F0E080818B7F8C9383C0A1E4EA
:100FF000B0E0E1E4F0E080818E7F8C93A1E4B0E08A
:10100000E1E4F0E0808182608C93A1E4B0E0E1E46F
:10101000F0E080818B7F8C936DC0A1E4B0E0E1E4CF
:10102000F0E0808181608C93A1E4B0E0E1E4F0E045
:10103000808182608C93A1E4B0E0E1E4F0E0808103
:101040008B7F8C9357C0A1E4B0E0E1E4F0E08081B5
:101050008E7F8C93A1E4B0E0E1E4F0E080818D7FAD
:101060008C93A1E4B0E0E1E4F0E0808184608C93B3
:1010700041C0A1E4B0E0E1E4F0E0808181608C93C4
:10108000A1E4B0E0E1E4F0E080818D7F8C93A1E405
:10109000B0E0E1E4F0E0808184608C932BC0A1E4B7
:1010A000B0E0E1E4F0E080818E7F8C93A1E4B0E0D9
:1010B000E1E4F0E0808182608C93A1E4B0E0E1E4BF
:1010C000F0E0808184608C9315C0A1E4B0E0E1E49D
:1010D000F0E0808181608C93A1E4B0E0E1E4F0E095
:1010E000808182608C93A1E4B0E0E1E4F0E0808153
:1010F00084608C930F900F900F90CF91DF910895A3
:10110000DF93CF93CDB7DEB7A0E4B0E0E0E4F0E04A
:10111000808180688C93A0E4B0E0E0E4F0E080811E
:1011200088608C93A0E4B0E0E0E4F0E080818F7E02
:101130008C93A0E4B0E0E0E4F0E080818F7D8C93BC
:10114000A0E4B0E0E0E4F0E0808182608C93A0E471
:10115000B0E0E0E4F0E0808184608C93AAE2B0E04B
:10116000EAE2F0E080818B7F8C93A0E4B0E0E0E4E1
:10117000F0E080818F7B8C93E9E2F0E083E3808371
:10118000AAE2B0E0EAE2F0E0808188608C93AAE213
:10119000B0E0EAE2F0E0808180618C93CF91DF9152
:1011A0000895DF93CF930F92CDB7DEB78983EBE23B
:1011B000F0E08081829586958770882F90E081701D
:1011C00090700097A1F3ECE2F0E089818083EBE27C
:1011D000F0E080818295869586958370882F90E0D7
:1011E00081709070009799F30F90CF91DF910895DF
:1011F000DF93CF93CDB7DEB7EBE2F0E080818823B9
:10120000DCF7ECE2F0E08081CF91DF910895DF938D
:10121000CF93CDB7DEB7A5E4B0E0E5E4F0E08081A0
:10122000877F8C93A5E4B0E0E5E4F0E080818F7BDC
:101230008C93A9E5B0E0E9E5F0E0808181608C93D2
:101240000E94D00FCF91DF910895DF93CF9300D00C
:1012500000D0CDB7DEB79A83898389819A819C8338
:101260008B838B819C818330910509F449C08B81EC
:101270009C818430910558F48B819C81813091054B
:1012800099F08B819C818230910521F17BC08B810B
:101290009C818430910509F449C08B819C81853003
:1012A000910509F459C06EC0A5E4B0E0E5E4F0E0B2
:1012B000808181608C93A5E4B0E0E5E4F0E080817A
:1012C0008D7F8C93A5E4B0E0E5E4F0E080818B7F36
:1012D0008C936DC0A5E4B0E0E5E4F0E080818E7F02
:1012E0008C93A5E4B0E0E5E4F0E0808182608C932B
:1012F000A5E4B0E0E5E4F0E080818B7F8C9357C0FB
:10130000A5E4B0E0E5E4F0E0808181608C93A5E4A1
:10131000B0E0E5E4F0E0808182608C93A5E4B0E089
:10132000E5E4F0E080818B7F8C9341C0A5E4B0E0E0
:10133000E5E4F0E080818E7F8C93A5E4B0E0E5E405
:10134000F0E080818D7F8C93A5E4B0E0E5E4F0E0EF
:10135000808184608C932BC0A5E4B0E0E5E4F0E0EC
:10136000808181608C93A5E4B0E0E5E4F0E08081C9
:101370008D7F8C93A5E4B0E0E5E4F0E080818460AB
:101380008C9315C0A5E4B0E0E5E4F0E080818E7FA9
:101390008C93A5E4B0E0E5E4F0E080818D7F8C9350
:1013A000A5E4B0E0E5E4F0E080818B7F8C930F90C2
:1013B0000F900F900F90CF91DF910895DF93CF930F
:1013C000CDB7DEB7AFE4B0E0EFE4F0E080818E7F30
:1013D0008C93AFE4B0E0EFE4F0E0808182608C9326
:1013E000AEE4B0E0EEE4F0E0808188608C93AEE49F
:1013F000B0E0EEE4F0E0808180618C93AFE4B0E097
:10140000EFE4F0E0808180648C93AFE4B0E0EFE43F
:10141000F0E0808180688C93CF91DF910895CF9226
:10142000DF92EF92FF920F931F93DF93CF930F9270
:10143000CDB7DEB789830F2EFAE4CF2EDD24F02D51
:10144000E6E4F0E080819181CC01A0E0B0E0BC0155
:10145000CD010E9407057B018C018981882F90E0D6
:10146000AA2797FDA095BA2FBC01CD010E94550473
:10147000DC01CB01BC01CD0120E030E048EC52ECB6
:101480000E941903DC01CB01BC01CD0120E030E05A
:1014900040E85FE30E94F201DC01CB019C01AD0159
:1014A000C801B7010E941F02DC01CB01BC01CD01C4
:1014B0000E944900DC01CB01F601918380830F90EB
:1014C000CF91DF911F910F91FF90EF90DF90CF9020
:1014D00008950F931F93DF93CF930F92CDB7DEB78D
:1014E000898306E410E08981882F90E00024969596
:1014F00087950794969587950794982F802D9C0142
:10150000442737FD4095542F80E092E1AAE7B0E0F0
:10151000BC01CD010E94A054DA01C901F8019183F8
:1015200080830F90CF91DF911F910F910895DF93EA
:10153000CF93CDB7DEB7AEE4B0E0EEE4F0E080816B
:1015400081608C93AEE4B0E0EEE4F0E080818260F4
:101550008C93AEE4B0E0EEE4F0E080818B7F8C937E
:10156000CF91DF910895DF93CF93CDB7DEB7AEE48F
:10157000B0E0EEE4F0E080818E7F8C93AEE4B0E0EA
:10158000EEE4F0E080818D7F8C93AEE4B0E0EEE499
:10159000F0E080818B7F8C93CF91DF910895DF9372
:1015A000CF93CDB7DEB7A3E5B0E0E3E5F0E080810F
:1015B000877F8C93A3E5B0E0E3E5F0E08081806471
:1015C0008C93A9E5B0E0E9E5F0E0808182608C933E
:1015D0000E94D00FCF91DF910895DF93CF9300D079
:1015E00000D0CDB7DEB79A83898389819A819C83A5
:1015F0008B838B819C818330910509F449C08B8159
:101600009C818430910558F48B819C8181309105B7
:1016100099F08B819C818230910521F17BC08B8177
:101620009C818430910509F449C08B819C8185306F
:10163000910509F459C06EC0A3E5B0E0E3E5F0E020
:10164000808181608C93A3E5B0E0E3E5F0E08081E8
:101650008D7F8C93A3E5B0E0E3E5F0E080818B7FA4
:101660008C936DC0A3E5B0E0E3E5F0E080818E7F70
:101670008C93A3E5B0E0E3E5F0E0808182608C9399
:10168000A3E5B0E0E3E5F0E080818B7F8C9357C069
:10169000A3E5B0E0E3E5F0E0808181608C93A3E511
:1016A000B0E0E3E5F0E0808182608C93A3E5B0E0F8
:1016B000E3E5F0E080818B7F8C9341C0A3E5B0E04F
:1016C000E3E5F0E080818E7F8C93A3E5B0E0E3E575
:1016D000F0E080818D7F8C93A3E5B0E0E3E5F0E05E
:1016E000808184608C932BC0A3E5B0E0E3E5F0E05B
:1016F000808181608C93A3E5B0E0E3E5F0E0808138
:101700008D7F8C93A3E5B0E0E3E5F0E08081846019
:101710008C9315C0A3E5B0E0E3E5F0E080818E7F17
:101720008C93A3E5B0E0E3E5F0E080818D7F8C93BE
:10173000A3E5B0E0E3E5F0E080818B7F8C930F9030
:101740000F900F900F90CF91DF910895DF93CF937B
:10175000CDB7DEB7A3E5B0E0E3E5F0E080818E7FB2
:101760008C93A3E5B0E0E3E5F0E080818D7F8C937E
:10177000A3E5B0E0E3E5F0E080818B7F8C93CF912F
:10178000DF910895DF93CF93CDB7DEB769970FB69A
:10179000F894DEBF0FBECDBF6E8B7F8B888F998F85
:1017A0008E899F89A88DB98D28EE33E040E050E006
:1017B000BC01CD010E946154DC01CB018E8B9F8B5B
:1017C000A88FB98F80E090E0A0E0B1E48A8B9B8B7A
:1017D000AC8BBD8B80E090E0A0E0BEE38E879F875E
:1017E000A88BB98B8FEF8D878D85882F90E0A0E037
:1017F000B0E089879A87AB87BC8769857A858B85B6
:101800009C850E940705DC01CB01BC01CD012E8522
:101810003F85488959890E941F02DC01CB018D83D5
:101820009E83AF83B8876E897F89888D998D0E944A
:101830000705DC01CB01BC01CD012E853F85488920
:1018400059890E941903DC01CB01BC01CD010E9422
:101850004900DC01CB0189839A83AB83BC836E8909
:101860007F89888D998D0E940705DC01CB01BC0121
:10187000CD012D813E814F8158850E941903DC01E5
:10188000CB01BC01CD010E944900DC01CB0180935A
:10189000A2019093A301A093A401B093A50122C03B
:1018A0008D8581508D878D85882F90E0A0E0B0E0F8
:1018B00089879A87AB87BC8769857A858B859C8564
:1018C0000E940705DC01CB01BC01CD012E853F85BF
:1018D000488959890E941F02DC01CB018D839E83B8
:1018E000AF83B8876D817E818F8198850E94490082
:1018F0009B01AC018E899F89A88DB98DBC01CD015A
:101900000E94A054DC01CB010097A105B10541F66E
:10191000ECE5F0E08D85808369960FB6F894DEBF24
:101920000FBECDBFCF91DF910895DF93CF9300D04D
:101930000F92CDB7DEB789838981282F30E03B83B2
:101940002A838A819B8181309105C9F02A813B815C
:101950002230310529F08A819B810097F9F02DC052
:10196000A3E5B0E0E3E5F0E080818F7E8C93A3E512
:10197000B0E0E3E5F0E0808180628C932CC0A3E5C9
:10198000B0E0E3E5F0E0808180618C93A3E5B0E016
:10199000E3E5F0E0808180628C931DC0A3E5B0E0B8
:1019A000E3E5F0E0808180618C93A3E5B0E0E3E5BE
:1019B000F0E080818F7D8C930EC0A3E5B0E0E3E57D
:1019C000F0E080818F7E8C93A3E5B0E0E3E5F0E06A
:1019D00080818F7D8C930F900F900F90CF91DF912E
:1019E0000895DF93CF930F92CDB7DEB78983ECE5EF
:1019F000F0E0898180830F90CF91DF910895DF938C
:101A0000CF9300D0CDB7DEB79A83898389819A813D
:101A10009093C6018093C5010F900F90CF91DF91F5
:101A200008951F920F920FB60F9211242F933F9398
:101A30004F935F936F937F938F939F93AF93BF93D6
:101A4000EF93FF93DF93CF93CDB7DEB78091AA01D9
:101A50009091AB01A091AC01B091AD010196A11D97
:101A6000B11D8093AA019093AB01A093AC01B093F8
:101A7000AD012091AA013091AB014091AC01509190
:101A8000AD018091A2019091A301A091A401B09118
:101A9000A501281739074A075B0759F5E091C501E9
:101AA000F091C60109951092AA011092AB01109213
:101AB000AC011092AD01E2E5F0E08091A6019091B9
:101AC000A701A091A801B091A90180838091AA01EA
:101AD0009091AB01A091AC01B091AD010196A11D17
:101AE000B11D8093AA019093AB01A093AC01B09378
:101AF000AD01CF91DF91FF91EF91BF91AF919F9198
:101B00008F917F916F915F914F913F912F910F90A6
:101B10000FBE0F901F9018951F920F920FB60F9245
:101B200011242F933F934F935F936F937F938F93E2
:101B30009F93AF93BF93EF93FF93DF93CF93CDB773
:101B4000DEB78091AE019091AF01A091B001B0914C
:101B5000B1010196A11DB11D8093AE019093AF011B
:101B6000A093B001B093B1012091AE013091AF01CB
:101B70004091B0015091B1018091A2019091A301D7
:101B8000A091A401B091A501281739074A075B0766
:101B900069F4E091C501F091C60109951092AE017A
:101BA0001092AF011092B0011092B101CF91DF916C
:101BB000FF91EF91BF91AF919F918F917F916F9125
:101BC0005F914F913F912F910F900FBE0F901F90FB
:101BD0001895DF93CF93CDB7DEB781E065E041E0A4
:101BE0000E947A1281E066E040E00E947A1281E071
:101BF00067E041E00E947A12ADE2B0E0EDE2F0E091
:101C0000808180628C93ADE2B0E0EDE2F0E0808113
:101C1000877F8C93ADE2B0E0EDE2F0E080818460FC
:101C20008C93ADE2B0E0EDE2F0E0808180618C93D6
:101C3000ADE2B0E0EDE2F0E0808180688C93ADE24F
:101C4000B0E0EDE2F0E0808180648C93ADE2B0E042
:101C5000EDE2F0E0808181608C93ADE2B0E0EDE2F6
:101C6000F0E080818D7F8C93CF91DF910895DF9399
:101C7000CF93CDB7DEB781E064E040E00E947A12F6
:101C800081E065E040E00E947A1281E066E041E098
:101C90000E947A1281E067E040E00E947A12ADE291
:101CA000B0E0EDE2F0E0808180628C93ADE2B0E0E4
:101CB000EDE2F0E08081877F8C93ADE2B0E0EDE271
:101CC000F0E0808184608C93ADE2B0E0EDE2F0E082
:101CD00080818F7E8C93ADE2B0E0EDE2F0E0808118
:101CE00080688C93ADE2B0E0EDE2F0E0808180644A
:101CF0008C93ADE2B0E0EDE2F0E0808181608C9306
:101D0000ADE2B0E0EDE2F0E080818D7F8C93CF9189
:101D1000DF910895DF93CF930F92CDB7DEB789831C
:101D200081E064E040E00E948C13EFE2F0E0898102
:101D30008083EEE2F0E080818823DCF781E064E0DC
:101D400041E00E948C13AEE2B0E0EEE2F0E0808170
:101D500080688C93EFE2F0E080810F90CF91DF916B
:101D60000895DF93CF93CDB7DEB7AEE4B0E0EEE4F5
:101D7000F0E0808180648C93A9E5B0E0E9E5F0E0D3
:101D8000808180628C930E94D00FAEE4B0E0EEE4DC
:101D9000F0E080818E7F8C93AEE4B0E0EEE4F0E082
:101DA000808182608C93AEE4B0E0EEE4F0E080816C
:101DB0008B7F8C93CF91DF910895DF93CF9300D0E9
:101DC0000F92CDB7DEB789838981282F30E03B831E
:101DD0002A838A819B81009731F02A813B812130BF
:101DE000310549F00FC0AEE4B0E0EEE4F0E08081F0
:101DF00080648C9307C0AEE4B0E0EEE4F0E0808154
:101E00008F7B8C930F900F900F90CF91DF9108955F
:101E1000DF93CF93CDB7DEB7E6E4F0E08081918128
:101E2000CF91DF910895DF93CF9300D000D000D001
:101E3000CDB7DEB79C838B837E836D838091B201A7
:101E40009091B3019A83898381E090E029813A815E
:101E5000B9010E948C54CB01EB81FC81808380917D
:101E6000BA019091BB012091B2013091B301B90147
:101E70000E948C54CB019C0184E690E0AC01249F2D
:101E8000C001259F900D349F900D1124ED81FE819E
:101E9000808326960FB6F894DEBF0FBECDBFCF91DC
:101EA000DF9108951F920F920FB60F9211242F9376
:101EB0003F934F935F936F937F938F939F93AF93D2
:101EC000BF93EF93FF93DF93CF93CDB7DEB78091AE
:101ED000BE01813039F40E94080F9093B3018093C2
:101EE000B20146C08091BE01823051F40E94080FB9
:101EF0009093B5018093B40181E00E94DD0E38C05B
:101F00008091BE018330D1F40E94080F9093B701F5
:101F10008093B6012091B6013091B7018091B40150
:101F20009091B501A901481B590BCA019093BB01BF
:101F30008093BA0180E00E94DD0E1AC08091BE013C
:101F40008430B1F40E94080F9093B9018093B801D6
:101F50002091B8013091B9018091B6019091B701FB
:101F6000A901481B590BCA019093BD018093BC0184
:101F70008091BE018F5F8093BE01CF91DF91FF9171
:101F8000EF91BF91AF919F918F917F916F915F91F1
:101F90004F913F912F910F900FBE0F901F9018956A
:101FA000DF93CF93CDB7DEB7AFE5B0E0EFE5F0E07C
:101FB000808180688C93CF91DF910895DF93CF93D8
:101FC000CDB7DEB7AFE5B0E0EFE5F0E080818F7729
:101FD0008C93CF91DF910895DF93CF9300D00F9230
:101FE000CDB7DEB789838981833050F58981282F69
:101FF00030E03B832A838A819B818130910589F07F
:102000002A813B8122303105A1F08A819B81009792
:10201000B9F4ABE5B0E0EBE5F0E0808180648C934F
:102020000FC0ABE5B0E0EBE5F0E0808180688C9319
:1020300007C0ABE5B0E0EBE5F0E0808180628C9317
:102040000F900F900F90CF91DF910895DF93CF9372
:1020500000D00F92CDB7DEB789838981833050F5E8
:102060008981282F30E03B832A838A819B818130BC
:10207000910589F02A813B8122303105A1F08A81C6
:102080009B810097B9F4ABE5B0E0EBE5F0E080812F
:102090008F7B8C930FC0ABE5B0E0EBE5F0E0808187
:1020A0008F778C9307C0ABE5B0E0EBE5F0E0808183
:1020B0008F7D8C930F900F900F90CF91DF910895AB
:1020C000DF93CF93CDB7DEB72A970FB6F894DEBF74
:1020D0000FBECDBF89836A838A81843008F0D9C05E
:1020E0008A818823D1F58981282F30E03A87298792
:1020F00089859A8581309105C9F029853A852230F4
:10210000310519F189859A85009709F0C2C0A5E5C6
:10211000B0E0E5E5F0E080818E7F8C93A5E5B0E04E
:10212000E5E5F0E0808182608C93B3C0A5E5B0E086
:10213000E5E5F0E080818B7F8C93A5E5B0E0E5E5F7
:10214000F0E0808188608C93A4C0A4E5B0E0E4E571
:10215000F0E080818F7B8C939CC08A818130D1F5A7
:102160008981282F30E038872F838F8198858130AF
:102170009105C9F02F8138852230310519F18F8101
:102180009885009709F085C0A5E5B0E0E5E5F0E0A9
:10219000808181608C93A5E5B0E0E5E5F0E0808189
:1021A00082608C9376C0A5E5B0E0E5E5F0E0808143
:1021B00084608C93A5E5B0E0E5E5F0E0808188607F
:1021C0008C9367C0A4E5B0E0E4E5F0E08081806432
:1021D0008C935FC08A81823069F58981282F30E035
:1021E0003E832D838D819E81009731F02D813E812C
:1021F0002130310581F04DC0A5E5B0E0E5E5F0E026
:10220000808181608C93A5E5B0E0E5E5F0E0808118
:102210008D7F8C933EC0A5E5B0E0E5E5F0E08081E0
:1022200084608C93A5E5B0E0E5E5F0E08081877FF0
:102230008C932FC08A81833061F58981282F30E00B
:102240003C832B838B819C81009731F02B813C81D7
:102250002130310581F01DC0A5E5B0E0E5E5F0E0F5
:1022600080818E7F8C93A5E5B0E0E5E5F0E080818C
:102270008D7F8C930EC0A5E5B0E0E5E5F0E08081B0
:102280008B7F8C93A5E5B0E0E5E5F0E08081877F6A
:102290008C932A960FB6F894DEBF0FBECDBFCF91B8
:1022A000DF910895DF93CF9300D000D00F92CDB788
:1022B000DEB789837B836A838981833098F589813E
:1022C000282F30E03D832C838C819D8181309105C6
:1022D000A9F02C813D8122303105D1F08C819D8186
:1022E000009701F5EAE5F0E0808182958695869574
:1022F00083708170EA81FB81808314C0EAE5F0E09D
:102300008081881F8827881FEA81FB8180830AC01B
:10231000EAE5F0E080818295869587708170EA8198
:10232000FB8180830F900F900F900F900F90CF91B3
:10233000DF910895DF93CF9300D0CDB7DEB79A83B6
:10234000898389819A819093C0018093BF010F9006
:102350000F90CF91DF910895DF93CF9300D0CDB749
:10236000DEB79A83898389819A819093C201809391
:10237000C1010F900F90CF91DF910895DF93CF931C
:1023800000D0CDB7DEB79A83898389819A819093F3
:10239000C4018093C3010F900F90CF91DF910895F6
:1023A0001F920F920FB60F9211242F933F934F93CA
:1023B0005F936F937F938F939F93AF93BF93EF93AD
:1023C000FF93DF93CF93CDB7DEB7E091C101F091DA
:1023D000C2010995CF91DF91FF91EF91BF91AF912C
:1023E0009F918F917F916F915F914F913F912F912D
:1023F0000F900FBE0F901F9018951F920F920FB65F
:102400000F9211242F933F934F935F936F937F937A
:102410008F939F93AF93BF93EF93FF93DF93CF93EC
:10242000CDB7DEB7E091BF01F091C0010995CF9122
:10243000DF91FF91EF91BF91AF919F918F917F912C
:102440006F915F914F913F912F910F900FBE0F9021
:102450001F9018951F920F920FB60F9211242F9371
:102460003F934F935F936F937F938F939F93AF931C
:10247000BF93EF93FF93DF93CF93CDB7DEB7E09198
:10248000C301F091C4010995CF91DF91FF91EF91C4
:10249000BF91AF919F918F917F916F915F914F917C
:1024A0003F912F910F900FBE0F901F901895DF93C3
:1024B000CF93CDB7DEB7EAE3F0E08FEF8083E7E3B9
:1024C000F0E08BE08083E4E3F0E087E08083E1E309
:1024D000F0E08EEF8083EBE3F0E01082E8E3F0E0E1
:1024E0001082E5E3F0E01082E2E3F0E01082CF91A9
:1024F000DF910895DF93CF93CDB7DEB728970FB65E
:10250000F894DEBF0FBECDBF8A836B834C831982E4
:102510008B81883008F0F4C08C81813009F072C062
:102520008A81282F30E038872F838F8198858130EA
:10253000910549F12F813885223031052CF48F81A6
:102540009885009761F05BC02F8138852230310576
:1025500071F18F81988583309105E9F150C0AAE32C
:10256000B0E0EAE3F0E08081482F8B81282F30E053
:1025700081E090E0022E02C0880F991F0A94E2F7D2
:10258000842B8C93BFC0A7E3B0E0E7E3F0E0808149
:10259000482F8B81282F30E081E090E0022E02C08E
:1025A000880F991F0A94E2F7842B8C93ABC0A4E3A5
:1025B000B0E0E4E3F0E08081482F8B81282F30E009
:1025C00081E090E0022E02C0880F991F0A94E2F782
:1025D000842B8C9397C0A1E3B0E0E1E3F0E080812D
:1025E000482F8B81282F30E081E090E0022E02C03E
:1025F000880F991F0A94E2F7842B8C9383C082E0A2
:10260000898380C08C81882309F077C08A81282F34
:1026100030E03E832D838D819E818130910559F17B
:102620002D813E81223031052CF48D819E810097D1
:1026300069F060C02D813E812230310589F18D81A4
:102640009E818330910509F440C054C0AAE3B0E0F4
:10265000EAE3F0E08081482F8B81282F30E081E091
:1026600090E0022E02C0880F991F0A94E2F780952D
:1026700084238C9347C0A7E3B0E0E7E3F0E08081D8
:10268000482F8B81282F30E081E090E0022E02C09D
:10269000880F991F0A94E2F7809584238C9332C0A7
:1026A000A4E3B0E0E4E3F0E08081482F8B81282FA1
:1026B00030E081E090E0022E02C0880F991F0A945A
:1026C000E2F7809584238C931DC0A1E3B0E0E1E3A1
:1026D000F0E08081482F8B81282F30E081E090E06E
:1026E000022E02C0880F991F0A94E2F78095842376
:1026F0008C9308C082E0898305C084E0898302C08E
:1027000081E08983898128960FB6F894DEBF0FBED9
:10271000CDBFCF91DF910895DF93CF93CDB7DEB7D3
:1027200028970FB6F894DEBF0FBECDBF8A836B83A8
:102730004C8319828B81883008F0F4C08C81813001
:1027400009F072C08A81282F30E038872F838F816B
:1027500098858130910549F12F81388522303105E6
:102760002CF48F819885009761F05BC02F813885AC
:102770002230310571F18F81988583309105E9F11F
:1027800050C0ABE3B0E0EBE3F0E08081482F8B81F9
:10279000282F30E081E090E0022E02C0880F991FC0
:1027A0000A94E2F7842B8C93BFC0A8E3B0E0E8E37F
:1027B000F0E08081482F8B81282F30E081E090E08D
:1027C000022E02C0880F991F0A94E2F7842B8C9383
:1027D000ABC0A5E3B0E0E5E3F0E08081482F8B815A
:1027E000282F30E081E090E0022E02C0880F991F70
:1027F0000A94E2F7842B8C9397C0A2E3B0E0E2E363
:10280000F0E08081482F8B81282F30E081E090E03C
:10281000022E02C0880F991F0A94E2F7842B8C9332
:1028200083C082E0898380C08C81882309F077C0CF
:102830008A81282F30E03E832D838D819E818130D7
:10284000910559F12D813E81223031052CF48D8185
:102850009E81009769F060C02D813E812230310554
:1028600089F18D819E818330910509F440C054C067
:10287000ABE3B0E0EBE3F0E08081482F8B81282FC1
:1028800030E081E090E0022E02C0880F991F0A9488
:10289000E2F7809584238C9347C0A8E3B0E0E8E397
:1028A000F0E08081482F8B81282F30E081E090E09C
:1028B000022E02C0880F991F0A94E2F780958423A4
:1028C0008C9332C0A5E3B0E0E5E3F0E08081482FCF
:1028D0008B81282F30E081E090E0022E02C0880F2B
:1028E000991F0A94E2F7809584238C931DC0A2E37C
:1028F000B0E0E2E3F0E08081482F8B81282F30E0C8
:1029000081E090E0022E02C0880F991F0A94E2F73E
:10291000809584238C9308C082E0898305C083E07E
:10292000898302C081E08983898128960FB6F89453
:10293000DEBF0FBECDBFCF91DF910895DF93CF9360
:10294000CDB7DEB727970FB6F894DEBF0FBECDBF69
:102950008A836B835D834C831982EC81FD811082B5
:102960008B81883008F074C08A81282F30E03F8343
:102970002E834E815F814130510559F18E819F81B7
:102980008230910534F42E813F812115310569F0A3
:102990005CC04E815F814230510579F18E819F810B
:1029A0008330910509F43DC050C0E9E3F0E0808137
:1029B000282F30E08B81882F90E0A90102C0559527
:1029C00047958A95E2F7CA018170EC81FD81808389
:1029D00041C0E6E3F0E08081282F30E08B81882F32
:1029E00090E0A90102C0559547958A95E2F7CA0182
:1029F0008170EC81FD8180832DC0E3E3F0E0808174
:102A0000282F30E08B81882F90E0A90102C05595D6
:102A100047958A95E2F7CA018170EC81FD81808338
:102A200019C0E0E3F0E08081282F30E08B81882F0F
:102A300090E0A90102C0559547958A95E2F7CA0131
:102A40008170EC81FD81808305C082E0898302C0B2
:102A500081E08983898127960FB6F894DEBF0FBE87
:102A6000CDBFCF91DF910895DF93CF9300D000D0F9
:102A70000F92CDB7DEB78A836B8319828B81883042
:102A800008F072C08A81282F30E03D832C838C812E
:102A90009D818130910549F12C813D8122303105A4
:102AA0002CF48C819D81009761F05BC02C813D816D
:102AB0002230310571F18C819D8183309105E9F1DE
:102AC00050C0ABE3B0E0EBE3F0E08081482F8B81B6
:102AD000282F30E081E090E0022E02C0880F991F7D
:102AE0000A94E2F784278C9341C0A8E3B0E0E8E3BE
:102AF000F0E08081482F8B81282F30E081E090E04A
:102B0000022E02C0880F991F0A94E2F784278C9343
:102B10002DC0A5E3B0E0E5E3F0E08081482F8B8194
:102B2000282F30E081E090E0022E02C0880F991F2C
:102B30000A94E2F784278C9319C0A2E3B0E0E2E3A1
:102B4000F0E08081482F8B81282F30E081E090E0F9
:102B5000022E02C0880F991F0A94E2F784278C93F3
:102B600005C082E0898302C081E0898389810F905A
:102B70000F900F900F900F90CF91DF910895DF93FA
:102B8000CF93CDB7DEB729970FB6F894DEBF0FBE4F
:102B9000CDBF8A836B8319828A81843008F0A4C0F8
:102BA0008B818F3FB1F58A81282F30E039872887C4
:102BB0008885998581309105D1F028853985223025
:102BC00031052CF488859985009761F01FC0288510
:102BD00039852230310581F08885998583309105CA
:102BE00081F014C0EAE3F0E08FEF80837FC0E7E379
:102BF000F0E08FEF80837AC0E4E3F0E08FEF808332
:102C000075C0E1E3F0E08FEF808370C082E08983DC
:102C10006DC08B81882391F58A81282F30E03F8316
:102C20002E838E819F8181309105C9F02E813F8155
:102C3000223031052CF48E819F81009761F01BC0FA
:102C40002E813F812230310571F08E819F8183304A
:102C5000910569F010C0EAE3F0E0108247C0E7E3B5
:102C6000F0E0108243C0E4E3F0E010823FC0E1E313
:102C7000F0E010823BC082E0898338C08A81282F2F
:102C800030E03D832C838C819D8181309105D1F092
:102C90002C813D81223031052CF48C819D8100975F
:102CA00061F01FC02C813D812230310581F08C8183
:102CB0009D818330910581F014C0EAE3F0E08B81BF
:102CC000808314C0E7E3F0E08B8180830FC0E4E3EE
:102CD000F0E08B8180830AC0E1E3F0E08B818083A8
:102CE00005C082E0898302C085E0898389812996B5
:102CF0000FB6F894DEBF0FBECDBFCF91DF91089520
:102D0000DF93CF9300D000D00F92CDB7DEB78A8388
:102D10006B8319828A818430B0F58A81282F30E054
:102D20003D832C838C819D8181309105D1F02C8154
:102D30003D81223031052CF48C819D81009761F01A
:102D40001FC02C813D812230310581F08C819D8115
:102D50008330910581F014C0EBE3F0E08B81808338
:102D600014C0E8E3F0E08B8180830FC0E5E3F0E07E
:102D70008B8180830AC0E2E3F0E08B81808305C011
:102D800082E0898302C085E0898389810F900F905A
:102D90000F900F900F90CF91DF910895DF93CF9315
:102DA00000D000D000D0CDB7DEB78A837C836B83A0
:102DB0001982EB81FC8110828A81843008F03EC048
:102DC0008A81282F30E03E832D838D819E81813042
:102DD0009105E1F02D813E81223031052CF48D8169
:102DE0009E81009761F027C02D813E812230310500
:102DF000A1F08D819E8183309105B1F01CC0E9E383
:102E0000F0E08081EB81FC8180831AC0E6E3F0E092
:102E10008081EB81FC81808313C0E3E3F0E080815B
:102E2000EB81FC8180830CC0E0E3F0E08081EB81EA
:102E3000FC81808305C082E0898302C085E08983AC
:102E4000898126960FB6F894DEBF0FBECDBFCF9115
:102E5000DF910895DF93CF9300D000D0CDB7DEB7D8
:102E60008A8319828A81843008F042C08A81282F9F
:102E700030E03C832B838B819C8181309105E9F08C
:102E80002B813C81223031052CF48B819C81009771
:102E900061F02BC02B813C8122303105B1F08B8158
:102EA0009C8183309105C9F020C0ABE3B0E0EBE337
:102EB000F0E0808180958C931DC0A8E3B0E0E8E34A
:102EC000F0E0808180958C9315C0A5E3B0E0E5E348
:102ED000F0E0808180958C930DC0A2E3B0E0E2E346
:102EE000F0E0808180958C9305C082E0898302C0E8
:102EF00085E0898389810F900F900F900F90CF917B
:102F0000DF910895DF93CF93CDB7DEB7A7E2B0E0AE
:102F1000E7E2F0E0808180648C93A7E2B0E0E7E232
:102F2000F0E080818F778C93A7E2B0E0E7E2F0E0F9
:102F300080818F7D8C93A6E2B0E0E6E2F0E08081B4
:102F400081608C93A6E2B0E0E6E2F0E080818260EE
:102F50008C93A6E2B0E0E6E2F0E0808184608C939E
:102F6000A6E2B0E0E6E2F0E080818F7D8C93A6E2FD
:102F7000B0E0E6E2F0E0808180688C93CF91DF9151
:102F80000895DF93CF9300D00F92CDB7DEB789833A
:102F9000E4E2F0E0118210828981282F30E03B8347
:102FA0002A838A819B818330910509F470C02A812C
:102FB0003B812430310584F48A819B8181309105E5
:102FC000D1F12A813B81223031050CF04AC08A813F
:102FD0009B810097D1F0C8C02A813B812530310503
:102FE00009F481C08A819B81853091050CF465C00C
:102FF0002A813B812630310509F48BC08A819B816F
:103000008730910509F49BC0AFC0A7E2B0E0E7E2CA
:10301000F0E080818E7F8C93A7E2B0E0E7E2F0E001
:1030200080818D7F8C93A7E2B0E0E7E2F0E08081C1
:103030008B7F8C9399C0A7E2B0E0E7E2F0E080815B
:1030400081608C93A7E2B0E0E7E2F0E080818D7FC1
:103050008C93A7E2B0E0E7E2F0E080818B7F8C9375
:1030600083C0A7E2B0E0E7E2F0E080818E7F8C933E
:10307000A7E2B0E0E7E2F0E0808182608C93A7E213
:10308000B0E0E7E2F0E080818B7F8C936DC0A7E237
:10309000B0E0E7E2F0E0808181608C93A7E2B0E0ED
:1030A000E7E2F0E0808182608C93A7E2B0E0E7E2A3
:1030B000F0E080818B7F8C9357C0A7E2B0E0E7E21D
:1030C000F0E080818E7F8C93A7E2B0E0E7E2F0E051
:1030D00080818D7F8C93A7E2B0E0E7E2F0E0808111
:1030E00084608C9341C0A7E2B0E0E7E2F0E0808129
:1030F00081608C93A7E2B0E0E7E2F0E080818D7F11
:103100008C93A7E2B0E0E7E2F0E0808184608C93EA
:103110002BC0A7E2B0E0E7E2F0E080818E7F8C93E5
:10312000A7E2B0E0E7E2F0E0808182608C93A7E262
:10313000B0E0E7E2F0E0808184608C9315C0A7E204
:10314000B0E0E7E2F0E0808181608C93A7E2B0E03C
:10315000E7E2F0E0808182608C93A7E2B0E0E7E2F2
:10316000F0E0808184608C93A6E2B0E0E6E2F0E0DB
:10317000808180648C93E6E2F0E0808182958F709C
:10318000882F90E0817090700097A9F3A6E2B0E0DC
:10319000E6E2F0E0808180618C93E4E2F0E08081FF
:1031A00091810F900F900F90CF91DF910895DF9351
:1031B000CF93CDB7DEB72B970FB6F894DEBF0FBE17
:1031C000CDBF8B878B850E94C1179A8789872985F8
:1031D0003A8588E893E1AC01249FC001259F900DBA
:1031E000349F900D1124CC01A0E0B0E0BC01CD01D2
:1031F0000E940705DC01CB01BC01CD0120E030E0DD
:1032000040E854E40E941903DC01CB018D839E83C6
:10321000AF83B8876D817E818F81988520E030E013
:1032200040E251E40E941903DC01CB0189839A83B7
:10323000AB83BC8369817A818B819C810E94490028
:10324000DC01CB012B960FB6F894DEBF0FBECDBFCD
:10325000CF91DF910895DF93CF93CDB7DEB780E0B4
:103260006FE00E94BF15CF91DF910895DF93CF9358
:10327000CDB7DEB780E060E040E00E948C1380E0D4
:1032800061E040E00E948C1380E062E040E00E9438
:103290008C1380E063E040E00E948C13CF91DF91BB
:1032A0000895DF93CF93CDB7DEB764970FB6F89448
:1032B000DEBF0FBECDBF8F87688B8889882309F05A
:1032C000AAC08F85282F30E03C8B2B8B8B899C8963
:1032D00082309105D9F02B893C892330310534F4B3
:1032E0008B899C898130910561F0F4C02B893C89E0
:1032F0002330310581F08B899C898430910581F0E0
:10330000E9C080E061E00E948016E4C080E062E0F5
:103310000E948016DFC080E064E00E948016DAC060
:1033200080E068E00E94801680E090E0A0EAB0E4CF
:103330008B879C87AD87BE876B857C858D859E85B9
:1033400020E030E04AEF54E40E941F02DC01CB0190
:103350008F839887A987BA876F81788589859A85B1
:1033600020E030E040E85FE30E94250488232CF44D
:1033700081E090E09E838D833FC06F817885898551
:103380009A8520E03FEF4FE757E40E94C5031816E7
:103390004CF56B857C858D859E8520E030E040E294
:1033A00051E40E941F02DC01CB01BC01CD010E944F
:1033B0004900DC01CB019E838D830FC088EC90E037
:1033C0009C838B838B819C810197F1F79C838B83FA
:1033D0008D819E8101979E838D838D819E81009733
:1033E00069F714C06F81788589859A850E944900A4
:1033F000DC01CB019E838D838D819E819A8389839D
:1034000089819A810197F1F79A83898380E061E04D
:103410000E9480165FC08889813009F05BC08F856B
:10342000282F30E03A8B298B89899A89843091053D
:10343000C9F129893A892530310584F489899A8925
:103440008230910529F129893A89233031052CF5FB
:1034500089899A8981309105B1F03CC029893A89DE
:103460002630310549F189899A8986309105FCF029
:1034700029893A892730310521F189899A8988304B
:10348000910521F127C080E061E00E94801622C0F2
:1034900080E063E00E9480161DC080E062E00E9430
:1034A000801618C080E066E00E94801613C080E09D
:1034B00064E00E9480160EC080E06CE00E948016DE
:1034C00009C080E068E00E94801604C080E069E0E6
:1034D0000E94801664960FB6F894DEBF0FBECDBF73
:1034E000CF91DF910895DF93CF93CDB7DEB72F97BC
:1034F0000FB6F894DEBF0FBECDBF81E08F8779C0D5
:103500008F8560E00E94511980E090E0A0EAB0E46D
:103510008B879C87AD87BE876B857C858D859E85D7
:1035200020E030E04AEF54E40E941F02DC01CB01AE
:103530008F839887A987BA876F81788589859A85CF
:1035400020E030E040E85FE30E94250488232CF46B
:1035500081E090E09E838D833FC06F81788589856F
:103560009A8520E03FEF4FE757E40E94C503181605
:103570004CF56B857C858D859E8520E030E040E2B2
:1035800051E40E941F02DC01CB01BC01CD010E946D
:103590004900DC01CB019E838D830FC088EC90E055
:1035A0009C838B838B819C810197F1F79C838B8318
:1035B0008D819E8101979E838D838D819E81009751
:1035C00069F714C06F81788589859A850E944900C2
:1035D000DC01CB019E838D838D819E819A838983BB
:1035E00089819A810197F1F79A8389838F858F5F0B
:1035F0008F878F85853008F483CF2F960FB6F89488
:10360000DEBF0FBECDBFCF91DF910895DF93CF9383
:10361000CDB7DEB72F970FB6F894DEBF0FBECDBF84
:1036200084E08F8779C08F8560E00E94511980E027
:1036300090E0A0EAB0E48B879C87AD87BE876B855E
:103640007C858D859E8520E030E04AEF54E40E9421
:103650001F02DC01CB018F839887A987BA876F810E
:10366000788589859A8520E030E040E85FE30E9414
:10367000250488232CF481E090E09E838D833FC055
:103680006F81788589859A8520E03FEF4FE757E481
:103690000E94C50318164CF56B857C858D859E852B
:1036A00020E030E040E251E40E941F02DC01CB0147
:1036B000BC01CD010E944900DC01CB019E838D83BA
:1036C0000FC088EC90E09C838B838B819C81019759
:1036D000F1F79C838B838D819E8101979E838D83DF
:1036E0008D819E81009769F714C06F8178858985E7
:1036F0009A850E944900DC01CB019E838D838D81D8
:103700009E819A83898389819A810197F1F79A83AF
:1037100089838F8581508F878F85882309F083CF98
:103720002F960FB6F894DEBF0FBECDBFCF91DF91BD
:103730000895DF93CF93CDB7DEB72F970FB6F894E8
:10374000DEBF0FBECDBF81E08F8779C08F8561E07E
:103750000E94511980E090E0A0EAB0E48B879C873A
:10376000AD87BE876B857C858D859E8520E030E0AA
:103770004AEF54E40E941F02DC01CB018F8398873B
:10378000A987BA876F81788589859A8520E030E09E
:1037900040E85FE30E94250488232CF481E090E058
:1037A0009E838D833FC06F81788589859A8520E0CF
:1037B0003FEF4FE757E40E94C50318164CF56B85A1
:1037C0007C858D859E8520E030E040E251E40E94BA
:1037D0001F02DC01CB01BC01CD010E944900DC01CC
:1037E000CB019E838D830FC088EC90E09C838B83FC
:1037F0008B819C810197F1F79C838B838D819E81C6
:1038000001979E838D838D819E81009769F714C0F7
:103810006F81788589859A850E944900DC01CB01FA
:103820009E838D838D819E819A83898389819A81EC
:103830000197F1F79A8389838F858F5F8F878F85B3
:10384000893008F483CF2F960FB6F894DEBF0FBEF1
:10385000CDBFCF91DF910895DF93CF93CDB7DEB782
:103860002F970FB6F894DEBF0FBECDBF88E08F87CD
:1038700079C08F8561E00E94511980E090E0A0EA54
:10388000B0E48B879C87AD87BE876B857C858D85F3
:103890009E8520E030E04AEF54E40E941F02DC01E4
:1038A000CB018F839887A987BA876F8178858985AF
:1038B0009A8520E030E040E85FE30E9425048823F9
:1038C0002CF481E090E09E838D833FC06F817885EA
:1038D00089859A8520E03FEF4FE757E40E94C503B2
:1038E00018164CF56B857C858D859E8520E030E033
:1038F00040E251E40E941F02DC01CB01BC01CD017A
:103900000E944900DC01CB019E838D830FC088ECAF
:1039100090E09C838B838B819C810197F1F79C8342
:103920008B838D819E8101979E838D838D819E8166
:10393000009769F714C06F81788589859A850E9400
:103940004900DC01CB019E838D838D819E819A830A
:10395000898389819A810197F1F79A8389838F8579
:1039600081508F878F85882309F083CF2F960FB6DC
:10397000F894DEBF0FBECDBFCF91DF910895DF93E6
:10398000CF93CDB7DEB761970FB6F894DEBF0FBE09
:10399000CDBF888B698B81E08F8779C080E090E014
:1039A000A0EAB0E48B879C87AD87BE876B857C855A
:1039B0008D859E8520E030E04AEF54E40E941F028E
:1039C000DC01CB018F839887A987BA876F817885BF
:1039D00089859A8520E030E040E85FE30E94250475
:1039E00088232CF481E090E09E838D833FC06F811B
:1039F000788589859A8520E03FEF4FE757E40E945C
:103A0000C50318164CF56B857C858D859E8520E059
:103A100030E040E251E40E941F02DC01CB01BC0116
:103A2000CD010E944900DC01CB019E838D830FC034
:103A300088EC90E09C838B838B819C810197F1F7CC
:103A40009C838B838D819E8101979E838D838D8145
:103A50009E81009769F714C06F81788589859A8562
:103A60000E944900DC01CB019E838D838D819E8164
:103A70009A83898389819A810197F1F79A8389834F
:103A80008F8569890E9451198F858F5F8F879F85E8
:103A90008889891708F082CF61960FB6F894DEBF47
:103AA0000FBECDBFCF91DF910895DF93CF930F92DB
:103AB000CDB7DEB7898389816FEF0E94BF150F9064
:103AC000CF91DF910895DF93CF93CDB7DEB766979F
:103AD0000FB6F894DEBF0FBECDBF888B698B5B8BB2
:103AE0004A8B2C8B89898A3008F001C188898F879D
:103AF000F9C08F85282F30E03E8B2D8B8D899E89D4
:103B00008430910509F455C02D893E892530310551
:103B1000DCF48D899E898130910509F43BC02D89A3
:103B20003E89223031052CF48D899E89009769F1F8
:103B30005DC02D893E892230310589F18D899E89AC
:103B40008330910589F152C02D893E892730310596
:103B500009F43EC08D899E89883091055CF42D89D9
:103B60003E892530310551F18D899E898630910538
:103B700051F13CC02D893E892830310571F18D8984
:103B80009E898930910571F131C08C896FE30E9463
:103B900080162CC08C8966E00E94801627C08C8914
:103BA0006BE50E94801622C08C896FE40E9480160B
:103BB0001DC08C8966E60E94801618C08C896DE64F
:103BC0000E94801613C08C896DE70E9480160EC07B
:103BD0008C8967E00E94801609C08C896FE70E947B
:103BE000801604C08C896FE60E9480168A899B89A2
:103BF000CC01A0E0B0E0BC01CD010E940705DC01D2
:103C0000CB018B879C87AD87BE876B857C858D8537
:103C10009E8520E030E04AEF54E40E941F02DC0160
:103C2000CB018F839887A987BA876F81788589852B
:103C30009A8520E030E040E85FE30E942504882375
:103C40002CF481E090E09E838D833FC06F81788566
:103C500089859A8520E03FEF4FE757E40E94C5032E
:103C600018164CF56B857C858D859E8520E030E0AF
:103C700040E251E40E941F02DC01CB01BC01CD01F6
:103C80000E944900DC01CB019E838D830FC088EC2C
:103C900090E09C838B838B819C810197F1F79C83BF
:103CA0008B838D819E8101979E838D838D819E81E3
:103CB000009769F714C06F81788589859A850E947D
:103CC0004900DC01CB019E838D838D819E819A8387
:103CD000898389819A810197F1F79A8389838F85F6
:103CE0008F5F8F879F858989891708F002CF669635
:103CF0000FB6F894DEBF0FBECDBFCF91DF91089510
:103D0000DF93CF93CDB7DEB766970FB6F894DEBFDB
:103D10000FBECDBF888B698B5B8B4A8B2C8B8989BF
:103D20008A3008F001C189898F87F9C08F85282FD3
:103D300030E03E8B2D8B8D899E898430910509F46E
:103D400055C02D893E8925303105DCF48D899E8949
:103D50008130910509F43BC02D893E89223031051F
:103D60002CF48D899E89009769F15DC02D893E896B
:103D70002230310589F18D899E898330910589F141
:103D800052C02D893E892730310509F43EC08D8906
:103D90009E89883091055CF42D893E892530310556
:103DA00051F18D899E898630910551F13CC02D8954
:103DB0003E892830310571F18D899E8989309105C0
:103DC00071F131C08C896FE30E9480162CC08C8900
:103DD00066E00E94801627C08C896BE50E948016E1
:103DE00022C08C896FE40E9480161DC08C8966E613
:103DF0000E94801618C08C896DE60E94801613C040
:103E00008C896DE70E9480160EC08C8967E00E9445
:103E1000801609C08C896FE70E94801604C08C89C7
:103E20006FE60E9480168A899B89CC01A0E0B0E0F1
:103E3000BC01CD010E940705DC01CB018B879C876B
:103E4000AD87BE876B857C858D859E8520E030E0C3
:103E50004AEF54E40E941F02DC01CB018F83988754
:103E6000A987BA876F81788589859A8520E030E0B7
:103E700040E85FE30E94250488232CF481E090E071
:103E80009E838D833FC06F81788589859A8520E0E8
:103E90003FEF4FE757E40E94C50318164CF56B85BA
:103EA0007C858D859E8520E030E040E251E40E94D3
:103EB0001F02DC01CB01BC01CD010E944900DC01E5
:103EC000CB019E838D830FC088EC90E09C838B8315
:103ED0008B819C810197F1F79C838B838D819E81DF
:103EE00001979E838D838D819E81009769F714C011
:103EF0006F81788589859A850E944900DC01CB0114
:103F00009E838D838D819E819A83898389819A8105
:103F10000197F1F79A8389838F8581508F879F85D9
:103F20008889981708F002CF66960FB6F894DEBF1E
:103F30000FBECDBFCF91DF910895DF93CF9300D017
:103F400000D0CDB7DEB789836A838981282F30E01E
:103F50003C832B838B819C818430910509F455C06F
:103F60002B813C8125303105DCF48B819C818130B3
:103F7000910509F43BC02B813C81223031052CF4A2
:103F80008B819C81009769F15DC02B813C8122303F
:103F9000310589F18B819C818330910589F152C073
:103FA0002B813C812730310509F43EC08B819C81F7
:103FB000883091055CF42B813C812530310551F12D
:103FC0008B819C818630910551F13CC02B813C81D5
:103FD0002830310571F18B819C818930910571F117
:103FE00031C08A816FE30E9480162CC08A8166E00E
:103FF0000E94801627C08A816BE50E94801622C02D
:104000008A816FE40E9480161DC08A8166E60E9444
:10401000801618C08A816DE60E94801613C08A81BE
:104020006DE70E9480160EC08A8167E00E948016AC
:1040300009C08A816FE70E94801604C08A816FE6FA
:104040000E9480160F900F900F900F90CF91DF91EC
:104050000895DF93CF93CDB7DEB7A0970FB6F8944E
:10406000DEBF0FBECDBF8D8F6E8F58A34F8F8D8D4E
:104070006E8D0E949D1F8F8D98A1CC01A0E0B0E0B5
:10408000BC01CD010E940705DC01CB01898F9A8F0D
:10409000AB8FBC8F698D7A8D8B8D9C8D20E030E04D
:1040A0004AEF54E40E941F02DC01CB018D8B9E8BF2
:1040B000AF8BB88F6D897E898F89988D20E030E035
:1040C00040E85FE30E94250488232CF481E090E01F
:1040D0009C8B8B8B3FC06D897E898F89988D20E06A
:1040E0003FEF4FE757E40E94C50318164CF5698D62
:1040F0007A8D8B8D9C8D20E030E040E251E40E946F
:104100001F02DC01CB01BC01CD010E944900DC0192
:10411000CB019C8B8B8B0FC088EC90E09A8B898BAA
:1041200089899A890197F1F79A8B898B8B899C8968
:1041300001979C8B8B8B8B899C89009769F714C0A6
:104140006D897E898F89988D0E944900DC01CB01A1
:104150009C8B8B8B8B899C89988B8F878F8598897B
:104160000197F1F7988B8F878E8D60E00E94801603
:104170008F8D98A1CC01A0E0B0E0BC01CD010E94E0
:104180000705DC01CB018B879C87AD87BE876B85DC
:104190007C858D859E8520E030E04AEF54E40E94C6
:1041A0001F02DC01CB018F839887A987BA876F81B3
:1041B000788589859A8520E030E040E85FE30E94B9
:1041C000250488232CF481E090E09E838D833FC0FA
:1041D0006F81788589859A8520E03FEF4FE757E426
:1041E0000E94C50318164CF56B857C858D859E85D0
:1041F00020E030E040E251E40E941F02DC01CB01EC
:10420000BC01CD010E944900DC01CB019E838D835E
:104210000FC088EC90E09C838B838B819C810197FD
:10422000F1F79C838B838D819E8101979E838D8383
:104230008D819E81009769F714C06F81788589858B
:104240009A850E944900DC01CB019E838D838D817C
:104250009E819A83898389819A810197F1F79A8354
:104260008983A0960FB6F894DEBF0FBECDBFCF9165
:10427000DF910895DF93CF9300D0CDB7DEB7898368
:104280006A8389816A8141E00E947A120F900F90BF
:10429000CF91DF910895DF93CF9300D0CDB7DEB7F4
:1042A00089836A8389816A8141E00E948C130F901F
:1042B0000F90CF91DF910895DF93CF9300D0CDB7CA
:1042C000DEB789836A8389816A8140E00E948C130A
:1042D0000F900F90CF91DF910895DF93CF9300D08F
:1042E000CDB7DEB789836A8389816A810E943415DC
:1042F0000F900F90CF91DF910895DF93CF9300D06F
:1043000000D00F92CDB7DEB78D838D810E94C1178B
:104310009C838B838B819C81CC01A0E0B0E028E85A
:1043200033E140E050E0BC01CD010E946154DC016A
:10433000CB01072E7AE0B695A795979587957A9544
:10434000D1F7702D9A83898389819A810F900F907C
:104350000F900F900F90CF91DF910895DF93CF933F
:1043600000D000D0CDB7DEB78B838B810E947D213A
:104370009A83898389819A8123E0893E920718F480
:1043800084E08C833EC089819A8123E0893E920734
:1043900048F089819A8127E0813D920718F483E0F3
:1043A0008C832FC089819A8127E0813D920748F054
:1043B00089819A812BE0893B920718F482E08C83F3
:1043C00020C089819A812BE0893B920748F089813E
:1043D0009A812FE0813A920718F481E08C8311C012
:1043E00089819A812FE0813A920748F089819A81E8
:1043F00023E18938920718F484E08C8302C025E019
:104400002C838C810F900F900F900F90CF91DF91A4
:1044100008950F931F93DF93CF93CDB7DEB7C654A4
:10442000D0400FB6F894DEBF0FBECDBF0E9457122A
:10443000FE01ED5BFF4F80E090E0ACE0B2E48083F2
:104440009183A283B3838E01015C1F4FFE01ED5B5C
:10445000FF4F608171818281938120E030E04AEFDB
:1044600054E40E941F02DC01CB01F8018083918398
:10447000A283B383FE01FF96608171818281938163
:1044800020E030E040E85FE30E94250488232CF41C
:1044900081E090E09EAF8DAF46C0FE01FF96608147
:1044A00071818281938120E03FEF4FE757E40E94C2
:1044B000C503181664F5FE01ED5BFF4F6081718145
:1044C0008281938120E030E040E251E40E941F02AB
:1044D000DC01CB01BC01CD010E944900DC01CB0114
:1044E0009EAF8DAF0FC088EC90E09CAF8BAF8BADD3
:1044F0009CAD0197F1F79CAF8BAF8DAD9EAD019751
:104500009EAF8DAF8DAD9EAD009769F716C0FE01D1
:10451000FF9660817181828193810E944900DC0154
:10452000CB019EAF8DAF8DAD9EAD9AAF89AF89ADFA
:104530009AAD0197F1F79AAF89AF88E30E94982866
:1045400080E090E0A0E8BFE38DAB9EABAFABB8AF2F
:104550006DA97EA98FA998AD20E030E04AEF54E420
:104560000E941F02DC01CB0189AB9AABABABBCABA9
:1045700069A97AA98BA99CA920E030E040E85FE313
:104580000E94250488232CF481E090E098AB8FA74B
:104590003FC069A97AA98BA99CA920E03FEF4FE70A
:1045A00057E40E94C50318164CF56DA97EA98FA982
:1045B00098AD20E030E040E251E40E941F02DC01AF
:1045C000CB01BC01CD010E944900DC01CB0198ABBD
:1045D0008FA70FC088EC90E09EA78DA78DA59EA504
:1045E0000197F1F79EA78DA78FA598A9019798AB82
:1045F0008FA78FA598A9009769F714C069A97AA910
:104600008BA99CA90E944900DC01CB0198AB8FA724
:104610008FA598A99CA78BA78BA59CA50197F1F7BF
:104620009CA78BA78CE00E94982880E090E0A0E8EF
:10463000BFE38FA398A7A9A7BAA76FA178A589A55B
:104640009AA520E030E04AEF54E40E941F02DC010A
:10465000CB018BA39CA3ADA3BEA36BA17CA18DA119
:104660009EA120E030E040E85FE30E94250488231B
:104670002CF481E090E09AA389A33FC06BA17CA1B8
:104680008DA19EA120E03FEF4FE757E40E94C503B4
:1046900018164CF56FA178A589A59AA520E030E001
:1046A00040E251E40E941F02DC01CB01BC01CD01BC
:1046B0000E944900DC01CB019AA389A30FC088ECBA
:1046C00090E098A38F8F8F8D98A10197F1F798A311
:1046D0008F8F89A19AA101979AA389A389A19AA1F1
:1046E000009769F714C06BA17CA18DA19EA10E94C7
:1046F0004900DC01CB019AA389A389A19AA19E8FCD
:104700008D8F8D8D9E8D0197F1F79E8F8D8F81E01E
:104710000E94982880E090E0A0E2B1E4898F9A8F0F
:10472000AB8FBC8F698D7A8D8B8D9C8D20E030E0B6
:104730004AEF54E40E941F02DC01CB018D8B9E8B5B
:10474000AF8BB88F6D897E898F89988D20E030E09E
:1047500040E85FE30E94250488232CF481E090E088
:104760009C8B8B8B3FC06D897E898F89988D20E0D3
:104770003FEF4FE757E40E94C50318164CF5698DCB
:104780007A8D8B8D9C8D20E030E040E251E40E94D8
:104790001F02DC01CB01BC01CD010E944900DC01FC
:1047A000CB019C8B8B8B0FC088EC90E09A8B898B14
:1047B00089899A890197F1F79A8B898B8B899C89D2
:1047C00001979C8B8B8B8B899C89009769F714C010
:1047D0006D897E898F89988D0E944900DC01CB010B
:1047E0009C8B8B8B8B899C89988B8F878F859889E5
:1047F0000197F1F7988B8F8786E00E94982880E0D8
:1048000090E0A0E8BFE38B879C87AD87BE876B8570
:104810007C858D859E8520E030E04AEF54E40E943F
:104820001F02DC01CB018F839887A987BA876F812C
:10483000788589859A8520E030E040E85FE30E9432
:10484000250488232CF481E090E09E838D833FC073
:104850006F81788589859A8520E03FEF4FE757E49F
:104860000E94C50318164CF56B857C858D859E8549
:1048700020E030E040E251E40E941F02DC01CB0165
:10488000BC01CD010E944900DC01CB019E838D83D8
:104890000FC088EC90E09C838B838B819C81019777
:1048A000F1F79C838B838D819E8101979E838D83FD
:1048B0008D819E81009769F714C06F817885898505
:1048C0009A850E944900DC01CB019E838D838D81F6
:1048D0009E819A83898389819A810197F1F79A83CE
:1048E0008983CA5BDF4F0FB6F894DEBF0FBECDBF22
:1048F000CF91DF911F910F910895DF93CF93CDB7A3
:10490000DEB76D970FB6F894DEBF0FBECDBF8D8FAB
:1049100082E060E041E00E948C1382E061E040E0D0
:104920000E948C1383E06D8D0E94801682E062E00D
:1049300041E00E948C1380E090E0A0E8BFE3898F03
:104940009A8FAB8FBC8F698D7A8D8B8D9C8D20E07B
:1049500030E04AEF54E40E941F02DC01CB018D8B52
:104960009E8BAF8BB88F6D897E898F89988D20E063
:1049700030E040E85FE30E94250488232CF481E0C6
:1049800090E09C8B8B8B3FC06D897E898F89988D41
:1049900020E03FEF4FE757E40E94C50318164CF59F
:1049A000698D7A8D8B8D9C8D20E030E040E251E462
:1049B0000E941F02DC01CB01BC01CD010E94490015
:1049C000DC01CB019C8B8B8B0FC088EC90E09A8B29
:1049D000898B89899A890197F1F79A8B898B8B89C1
:1049E0009C8901979C8B8B8B8B899C89009769F79D
:1049F00014C06D897E898F89988D0E944900DC01E1
:104A0000CB019C8B8B8B8B899C89988B8F878F8517
:104A100098890197F1F7988B8F8782E062E040E0F8
:104A20000E948C1380E090E0A0EAB0E48B879C8722
:104A3000AD87BE876B857C858D859E8520E030E0C7
:104A40004AEF54E40E941F02DC01CB018F83988758
:104A5000A987BA876F81788589859A8520E030E0BB
:104A600040E85FE30E94250488232CF481E090E075
:104A70009E838D833FC06F81788589859A8520E0EC
:104A80003FEF4FE757E40E94C50318164CF56B85BE
:104A90007C858D859E8520E030E040E251E40E94D7
:104AA0001F02DC01CB01BC01CD010E944900DC01E9
:104AB000CB019E838D830FC088EC90E09C838B8319
:104AC0008B819C810197F1F79C838B838D819E81E3
:104AD00001979E838D838D819E81009769F714C015
:104AE0006F81788589859A850E944900DC01CB0118
:104AF0009E838D838D819E819A83898389819A810A
:104B00000197F1F79A8389836D960FB6F894DEBF0B
:104B10000FBECDBFCF91DF910895DF93CF9300D02B
:104B20000F92CDB7DEB79B838A8319820FC089812C
:104B3000282F30E08A819B81FC01E20FF31F9081D6
:104B400089818F5F8983892F0E947D248981282F05
:104B500030E08A819B81FC01E20FF31F8081882372
:104B600031F70F900F900F90CF91DF910895DF9361
:104B7000CF9300D000D0CDB7DEB789836A83898117
:104B80008131C8F48A81282F30E03C832B838B81CC
:104B90009C818130910531F02B813C81223031059F
:104BA00031F009C0898180580E94982804C0898109
:104BB00081540E9498280F900F900F900F90CF91E2
:104BC000DF910895DF93CF9300D000D00F92CDB73F
:104BD000DEB79B838A836C834D8380E40E94982890
:104BE00019820EC08981282F30E08A819B81FC01C7
:104BF000E20FF31F80810E947D2489818F5F89836A
:104C00008981803178F38C816D810E94B72580E0A5
:104C10000E947D240F900F900F900F900F90CF91D6
:104C2000DF910895DF93CF93CDB7DEB761970FB6CD
:104C3000F894DEBF0FBECDBF6E877F87888B998BC0
:104C40008E859F85A889B9898A309105A105B1050E
:104C500028F48E85805D0E947D24E7C08E859F8527
:104C6000A889B98984369105A105B10538F58E85E5
:104C70009F85A889B9892AE030E040E050E0BC0176
:104C8000CD010E94A054DA01C9018D878D85805D18
:104C90000E947D248E859F85A889B9892AE030E00D
:104CA00040E050E0BC01CD010E94A054DC01CB01EA
:104CB0008C878C85805D0E947D24B7C08E859F8502
:104CC000A889B989883E23E0920720E0A20720E066
:104CD000B20708F041C08E859F85A889B98924E66E
:104CE00030E040E050E0BC01CD010E94A054DA0168
:104CF000C9018B878B85805D0E947D248E859F8571
:104D0000A889B9892AE030E040E050E0BC01CD013B
:104D10000E94A054DA01C9018A878A859AE0692F26
:104D20000E948054892F89878985805D0E947D2417
:104D30008E859F85A889B9892AE030E040E050E05F
:104D4000BC01CD010E94A054DC01CB01888788857D
:104D5000805D0E947D2469C08E859F85A889B98960
:104D6000803127E2920720E0A20720E0B20708F096
:104D70005CC08E859F85A889B98928EE33E040E024
:104D800050E0BC01CD010E94A054DA01C9018F831B
:104D90008F81805D0E947D248E859F85A889B98939
:104DA00024E630E040E050E0BC01CD010E94A05478
:104DB000DA01C9018E838E819AE0692F0E948054A6
:104DC000892F8D838D81805D0E947D248E859F85B6
:104DD000A889B9892AE030E040E050E0BC01CD016B
:104DE0000E94A054DA01C9019C838B838B819C8132
:104DF0002AE030E0B9010E948C548A838A81805D68
:104E00000E947D248E859F85A889B9892AE030E09B
:104E100040E050E0BC01CD010E94A054DC01CB0178
:104E200089838981805D0E947D2461960FB6F89404
:104E3000DEBF0FBECDBFCF91DF910895EF92FF92FD
:104E40000F931F93DF93CF93CDB7DEB7A7970FB61E
:104E5000F894DEBF0FBECDBF6CA37DA38EA39FA32E
:104E60001F861E866CA17DA18EA19FA10E94490074
:104E7000DC01CB018A879B87AC87BD878AE0FE0176
:104E80007096DF01982F1D929A95E9F780E090E0E7
:104E9000A0E0B0E08E839F83A887B9876CA17DA135
:104EA0008EA19FA120E030E040E050E00E94250468
:104EB0008823C4F48CA19DA1AEA1BFA1B0588CA33E
:104EC0009DA3AEA3BFA36CA17DA18EA19FA10E94B3
:104ED0004900DC01CB018A879B87AC87BD878DE2C7
:104EE0000E947D246CA17DA18EA19FA120E030E0D5
:104EF00040E85FE30E94F201DC01CB017C018D01FF
:104F00006A857B858C859D850E9407059B01AC0188
:104F1000C801B7010E94C101DC01CB01BC01CD0178
:104F200020E836E948E15BE40E941F02DC01CB0186
:104F30008E839F83A887B9872FC08F85082F11275D
:104F400007FD10958A859B85AC85BD852AE030E0FC
:104F500040E050E0BC01CD010E94A054DC01CB0137
:104F6000282FCE014096FC01E00FF11F20838F8592
:104F70008F5F8F878A859B85AC85BD852AE030E071
:104F800040E050E0BC01CD010E94A054DA01C9010B
:104F90008A879B87AC87BD878A859B85AC85BD85C5
:104FA0000097A105B10549F68F858D838F858150C6
:104FB0008F8713C08F85282F332727FD3095CE018B
:104FC0004096FC01E20FF31F8081982F905D8F8542
:104FD00081508F87892F0E947D248F85882354F7E5
:104FE0008AE0FE017A96DF01982F1D929A95E9F7E3
:104FF0001F866E817F81888599850E944900DC012A
:10500000CB0189839A83AB83BC838EE20E947D248B
:105010002FC08F85082F112707FD109589819A8150
:10502000AB81BC812AE030E040E050E0BC01CD0122
:105030000E94A054DC01CB01282FCE014A96FC012E
:10504000E00FF11F20838F858F5F8F8789819A8181
:10505000AB81BC812AE030E040E050E0BC01CD01F2
:105060000E94A054DA01C90189839A83AB83BC836F
:1050700089819A81AB81BC810097A105B10549F670
:105080008F8582508F871E861CC08E85282F3327E0
:1050900027FD3095CE014A96FC01E20FF31F808177
:1050A000882349F58E85282F332727FD3095CE019B
:1050B0004A96FC01E20FF31F8BE680838E858F5F9B
:1050C0008E878E858A300CF316C08F85282F332764
:1050D00027FD3095CE014A96FC01E20FF31F808137
:1050E000982F905D8F8581508F87892F0E947D2416
:1050F0008D818F5F8D838F85282F332727FD3095F6
:10510000CE014A96FC01E20FF31F80818B3619F025
:105110008D818730D1F6A7960FB6F894DEBF0FBE0B
:10512000CDBFCF91DF911F910F91FF90EF90089528
:10513000DF93CF93CDB7DEB76D970FB6F894DEBF90
:105140000FBECDBF8D8F82E060E040E00E948C13E7
:1051500082E061E040E00E948C1383E06D8D0E944C
:10516000801682E062E041E00E948C1380E090E0D3
:10517000A0E8BFE3898F9A8FAB8FBC8F698D7A8D42
:105180008B8D9C8D20E030E04AEF54E40E941F029A
:10519000DC01CB018D8B9E8BAF8BB88F6D897E89A7
:1051A0008F89988D20E030E040E85FE30E9425047D
:1051B00088232CF481E090E09C8B8B8B3FC06D8921
:1051C0007E898F89988D20E03FEF4FE757E40E945A
:1051D000C50318164CF5698D7A8D8B8D9C8D20E05A
:1051E00030E040E251E40E941F02DC01CB01BC012F
:1051F000CD010E944900DC01CB019C8B8B8B0FC041
:1052000088EC90E09A8B898B89899A890197F1F7CC
:105210009A8B898B8B899C8901979C8B8B8B8B8933
:105220009C89009769F714C06D897E898F89988D54
:105230000E944900DC01CB019C8B8B8B8B899C8964
:10524000988B8F878F8598890197F1F7988B8F8737
:1052500082E062E040E00E948C1380E090E0A0EAEF
:10526000B0E48B879C87AD87BE876B857C858D85F9
:105270009E8520E030E04AEF54E40E941F02DC01EA
:10528000CB018F839887A987BA876F8178858985B5
:105290009A8520E030E040E85FE30E9425048823FF
:1052A0002CF481E090E09E838D833FC06F817885F0
:1052B00089859A8520E03FEF4FE757E40E94C503B8
:1052C00018164CF56B857C858D859E8520E030E039
:1052D00040E251E40E941F02DC01CB01BC01CD0180
:1052E0000E944900DC01CB019E838D830FC088ECB6
:1052F00090E09C838B838B819C810197F1F79C8349
:105300008B838D819E8101979E838D838D819E816C
:10531000009769F714C06F81788589859A850E9406
:105320004900DC01CB019E838D838D819E819A8310
:10533000898389819A810197F1F79A8389836D9690
:105340000FB6F894DEBF0FBECDBFCF91DF910895A9
:10535000DF93CF93CDB7DEB780E060EF0E94BF153B
:1053600080E06FEF0E948016CF91DF910895DF9368
:10537000CF93CDB7DEB762970FB6F894DEBF0FBEFE
:10538000CDBF198A81E08A8B84E0888BB5C080E02C
:10539000688940E00E948C131F86A2C09E012E5E89
:1053A0003F4F80E06F85A9010E949E148A8988235F
:1053B00009F093C08F85482F50E08889882F90E0AE
:1053C0009C0124503040CA01880F991F880F991FF3
:1053D000820F931FFC01EF57FE4F8081898B80E085
:1053E00090E0A0EAB1E48B879C87AD87BE876B8590
:1053F0007C858D859E8520E030E04AEF54E40E9454
:105400001F02DC01CB018F839887A987BA876F8140
:10541000788589859A8520E030E040E85FE30E9446
:10542000250488232CF481E090E09E838D833FC087
:105430006F81788589859A8520E03FEF4FE757E4B3
:105440000E94C50318164CF56B857C858D859E855D
:1054500020E030E040E251E40E941F02DC01CB0179
:10546000BC01CD010E944900DC01CB019E838D83EC
:105470000FC088EC90E09C838B838B819C8101978B
:10548000F1F79C838B838D819E8101979E838D8311
:105490008D819E81009769F71DC06F817885898510
:1054A0009A850E944900DC01CB019E838D838D810A
:1054B0009E819A83898389819A810197F1F79A83E2
:1054C000898308C09E012E5E3F4F80E06F85A90151
:1054D0000E949E148A898823A9F38F858F5F8F8706
:1054E0008F85843008F45ACF80E0688941E00E94BB
:1054F0008C1388898F5F888B8889883008F447CF20
:10550000898962960FB6F894DEBF0FBECDBFCF91EA
:10551000DF910895DF93CF93CDB7DEB781E060E0F0
:1055200041E00E947A1281E061E041E00E947A123B
:1055300080E0CF91DF910895DF93CF9300D0CDB776
:10554000DEB7198281E060E041E00E948C1381E0C7
:1055500061E040E00E948C1381E089838981882387
:1055600019F481E08A8301C01A828A810F900F901A
:10557000CF91DF910895DF93CF9300D0CDB7DEB701
:10558000198281E060E040E00E948C1381E061E0DC
:1055900041E00E948C1381E089838981882319F47A
:1055A00081E08A8301C01A828A810F900F90CF9187
:1055B000DF910895DF93CF9300D0CDB7DEB7198286
:1055C00081E060E040E00E948C1381E061E040E017
:1055D0000E948C1381E089838981882319F481E0FA
:1055E0008A8301C01A828A810F900F90CF91DF9138
:1055F0000895DF93CF93CDB7DEB760970FB6F894D9
:10560000DEBF0FBECDBF988B8F87EF85F88981E015
:105610008083EF85F889808162E00E94B7258EE45F
:105620000E947D24EF85F88980818F5FEF85F8895E
:105630008083EF85F889808161E00E94B72581E44D
:105640000E947D24EF85F88980818E5FEF85F8893F
:105650008083EF85F889808162E00E94B72584E429
:105660000E947D24EF85F88980818F5FEF85F8891E
:105670008083EF85F889808161E00E94B72581E40D
:105680000E947D24EF85F88981E0808380E090E0AE
:10569000AAEFB3E48B879C87AD87BE876B857C853B
:1056A0008D859E8520E030E04AEF54E40E941F0281
:1056B000DC01CB018F839887A987BA876F817885B2
:1056C00089859A8520E030E040E85FE30E94250468
:1056D00088232CF481E090E09E838D833FC06F810E
:1056E000788589859A8520E03FEF4FE757E40E944F
:1056F000C50318164CF56B857C858D859E8520E04D
:1057000030E040E251E40E941F02DC01CB01BC0109
:10571000CD010E944900DC01CB019E838D830FC027
:1057200088EC90E09C838B838B819C810197F1F7BF
:105730009C838B838D819E8101979E838D838D8138
:105740009E81009769F714C06F81788589859A8555
:105750000E944900DC01CB019E838D838D819E8157
:105760009A83898389819A810197F1F79A83898342
:1057700060960FB6F894DEBF0FBECDBFCF91DF911C
:1057800008950F931F93DF93CF93CDB7DEB7A29702
:105790000FB6F894DEBF0FBECDBF8D8F6E8F4F8FCB
:1057A00028A31AA309A329A13AA18D8D6E8DA90161
:1057B0000E949E14E9A1FAA18081813009F0EDC018
:1057C0008F8D68A10E944B2180E090E0AAEFB3E4A6
:1057D000898F9A8FAB8FBC8F698D7A8D8B8D9C8DC5
:1057E00020E030E04AEF54E40E941F02DC01CB01CC
:1057F0008D8B9E8BAF8BB88F6D897E898F89988DAD
:1058000020E030E040E85FE30E94250488232CF488
:1058100081E090E09C8B8B8B3FC06D897E898F8966
:10582000988D20E03FEF4FE757E40E94C50318161C
:105830004CF5698D7A8D8B8D9C8D20E030E040E2B7
:1058400051E40E941F02DC01CB01BC01CD010E948A
:105850004900DC01CB019C8B8B8B0FC088EC90E066
:105860009A8B898B89899A890197F1F79A8B898B11
:105870008B899C8901979C8B8B8B8B899C8900974A
:1058800069F714C06D897E898F89988D0E944900BF
:10589000DC01CB019C8B8B8B8B899C89988B8F87B0
:1058A0008F8598890197F1F7988B8F878F8D68A1E5
:1058B0000E945C2180E090E0AAEFB3E48B879C8794
:1058C000AD87BE876B857C858D859E8520E030E029
:1058D0004AEF54E40E941F02DC01CB018F839887BA
:1058E000A987BA876F81788589859A8520E030E01D
:1058F00040E85FE30E94250488232CF481E090E0D7
:105900009E838D833FC06F81788589859A8520E04D
:105910003FEF4FE757E40E94C50318164CF56B851F
:105920007C858D859E8520E030E040E251E40E9438
:105930001F02DC01CB01BC01CD010E944900DC014A
:10594000CB019E838D830FC088EC90E09C838B837A
:105950008B819C810197F1F79C838B838D819E8144
:1059600001979E838D838D819E81009769F719C071
:105970006F81788589859A850E944900DC01CB0179
:105980009E838D838D819E819A83898389819A816B
:105990000197F1F79A83898304C08F8D60E00E949C
:1059A0008016A2960FB6F894DEBF0FBECDBFCF9182
:1059B000DF911F910F9108950F931F93DF93CF9362
:1059C000CDB7DEB7C758D0400FB6F894DEBF0FBED4
:1059D000CDBFFE01EF57FF4F8083FE01EE57FF4F13
:1059E0006083FE01ED57FF4F4083FE01EC57FF4FF0
:1059F00031832083DE01AF57BF4FAE014E575F4F5B
:105A0000FE01EC57FF4F208131818C91FA016081BA
:105A1000A9010E949E14FE01EC57FF4F0190F081F6
:105A2000E02D8081813009F010C6FE01E158FF4F62
:105A30001182108200C6FE01E158FF4F80819181E2
:105A4000CA57DF4F99838883C658D040CA57DF4F63
:105A5000E881F981C658D040E330F10509F495C2D8
:105A6000CA57DF4F88819981C658D040843091054C
:105A7000ECF4CA57DF4FE881F981C658D040E130D5
:105A8000F10509F4FEC0CA57DF4F88819981C658D5
:105A9000D040823091050CF0B6C1CA57DF4FE88183
:105AA000F981C658D040309751F147C5CA57DF4FEA
:105AB00088819981C658D0408530910509F4BBC3CF
:105AC000CA57DF4FE881F981C658D040E530F1056B
:105AD0000CF41DC3CA57DF4F88819981C658D04046
