:100000000C942A000C94670C0C948E0C0C94B50C78
:100010000C9447000C9447000C94440B0C9447003C
:100020000C9447000C9447000C946E0A0C94180A28
:100030000C9447000C9447000C9447000C94470024
:100040000C9447000C9447000C9447000C94470014
:100050000C94470011241FBECFE5D8E0DEBFCDBF12
:1000600011E0A0E6B0E0EAE0FAE302C005900D92EC
:10007000A03EB107D9F712E0A0EEB1E001C01D9299
:10008000AA32B107E1F70E944A1C0C94031D0C949C
:100090000000EF92FF920F931F937B018C0120E0F1
:1000A00030E040E05FE40E94F50388238CF0C80153
:1000B000B70120E030E040E05FE40E94C1010E940F
:1000C000B3049B01AC01205030404040504806C072
:1000D000C801B7010E94B3049B01AC01B901CA0178
:1000E0001F910F91FF90EF900895A0E0B0E0EBE733
:1000F000F0E00C94CC1CDC012B01FA019C919230B5
:1001000008F439C1EB018881823008F433C194309E
:1001100069F4843009F02FC111969C91119789815F
:10012000981709F428C1A8ECB0E025C1843009F47F
:1001300021C18230A9F4923009F01DC19A01AD01AC
:1001400088E0EA010990AE01E90109929E0181501F
:10015000C1F7E201898111969C918923818308C1AD
:10016000923009F407C112962D903C901397EB0141
:100170008A819B811496AD90BD90CD90DC901797AD
:10018000EC80FD800E811F819101281B390BB90184
:1001900037FF04C066277727621B730B6032710537
:1001A0000CF061C0121613066CF537014801062EDB
:1001B00004C096948794779467940A94D2F721E0C8
:1001C00030E040E050E004C0220F331F441F551FB1
:1001D0006A95D2F721503040404050402E213F21B7
:1001E00040235123211531054105510521F021E01E
:1001F00030E040E050E079018A01E628F72808293C
:1002000019293CC0232BD1F1260E371E350146019A
:10021000062E04C096948794779467940A94D2F734
:1002200021E030E040E050E004C0220F331F441FC3
:10023000551F6A95D2F721503040404050402A2146
:100240003B214C215D21211531054105510521F04E
:1002500021E030E040E050E059016A01A628B728CB
:10026000C828D9280BC0821593052CF01C01AA249C
:10027000BB24650103C0EE24FF24870111969C91E5
:10028000D20111968C91981709F445C0992339F041
:10029000A80197012A193B094C095D0906C0A6016E
:1002A00095012E193F09400B510B57FD08C01182D3
:1002B0003382228224833583468357831DC081E0A5
:1002C00081833382228288279927DC01821B930B4A
:1002D000A40BB50B84839583A683B7830DC0220F2F
:1002E000331F441F551F24833583468357838281E0
:1002F000938101979383828324813581468157813D
:10030000DA01C9010197A109B1098F5F9F4FAF4F72
:10031000BF4328F30BC0918333822282EA0CFB1C7B
:100320000C1D1D1DE482F5820683178383E0808304
:10033000248135814681578157FF1AC0C901AA27F8
:1003400097FDA095BA2F81709070A070B0705695EF
:10035000479537952795822B932BA42BB52B848318
:100360009583A683B7838281938101969383828349
:10037000DF0101C0D201CD01CDB7DEB7E2E10C94BF
:10038000E81CA0E2B0E0E7ECF1E00C94D81C698333
:100390007A838B839C832D833E834F835887E9E048
:1003A000EE2EF12CEC0EFD1ECE010196B7010E943F
:1003B000A4068E010F5E1F4FCE010596B8010E9464
:1003C000A4068A8991E089278A8BC701B801AE010A
:1003D000475E5F4F0E9475000E94CF05A096E6E041
:1003E0000C94F41CA0E2B0E0E8EFF1E00C94D81C0F
:1003F00069837A838B839C832D833E834F835887C5
:10040000F9E0EF2EF12CEC0EFD1ECE010196B701A6
:100410000E94A4068E010F5E1F4FCE010596B80103
:100420000E94A406C701B801AE01475E5F4F0E945B
:1004300075000E94CF05A096E6E00C94F41CA0E2A3
:10044000B0E0E5E2F2E00C94CC1C69837A838B8304
:100450009C832D833E834F835887CE010196BE0136
:10046000675F7F4F0E94A406CE010596BE016F5EB6
:100470007F4F0E94A4069985923088F08989823046
:10048000C8F0943019F4823051F404C0843029F457
:10049000923081F488EC90E0C6C0923049F420E0BC
:1004A0009A858A89981321E02A87CE010996BBC0D4
:1004B000823049F420E09A858A89981321E02A8BBA
:1004C000CE014196B0C02D843E844F8458886D88FB
:1004D0007E888F88988CEE24FF248701AA24BB2471
:1004E000650140E050E060E070E0E0E0F0E0C10174
:1004F00081709070892BE9F0E60CF71C081D191D1E
:100500009A01AB012A0D3B1D4C1D5D1D80E090E062
:10051000A0E0B0E0E614F7040805190520F481E036
:1005200090E0A0E0B0E0BA01A901480F591F6A1F8E
:100530007B1FAA0CBB1CCC1CDD1C97FE08C081E0F5
:1005400090E0A0E0B0E0A82AB92ACA2ADB2A3196B6
:10055000E032F10549F0660C771C881C991C569412
:10056000479437942794C3CFFA85EA892B893C892D
:100570008B859C85280F391F2E5F3F4F17C0CA01FE
:1005800081709070892B61F016950795F794E79428
:1005900080E090E0A0E0B0E8E82AF92A0A2B1B2BC3
:1005A00076956795579547952F5F3F4F77FDE7CF36
:1005B0000CC0440F551F661F771F17FD4160EE0CDE
:1005C000FF1C001F111F21503040403090E05907A0
:1005D00090E0690790E4790760F32B8F3C8FDB0193
:1005E000CA018F779070A070B07080349105A1051A
:1005F000B10561F447FD0AC0E114F10401051105DC
:1006000029F0405C5F4F6F4F7F4F40781A8EFE1786
:1006100011F081E08A8F4D8F5E8F6F8F78A383E01A
:10062000898FCE0149960E94CF05A096E2E10C94F5
:10063000E81CA8E1B0E0EFE1F3E00C94D41C69837E
:100640007A838B839C832D833E834F835887B9E0C5
:10065000EB2EF12CEC0EFD1ECE010196B7010E948F
:10066000A4068E010F5E1F4FCE010596B8010E94B1
:10067000A4062985223008F47EC03989323010F46E
:10068000B8017CC08A859A8989278A87243011F02D
:10069000223031F4231709F06EC068EC70E06EC0B0
:1006A000343039F41D861E861F86188A1C861B86E8
:1006B00004C0323021F484E08987B7015FC02B8504
:1006C0003C858B899C89281B390B3C872B87ED84C3
:1006D000FE840F851889AD88BE88CF88D88CEA142F
:1006E000FB040C051D0540F4EE0CFF1C001F111F40
:1006F000215030403C872B8720E030E040E050E044
:1007000080E090E0A0E0B0E460E070E0EA14FB0478
:100710000C051D0540F0282B392B4A2B5B2BEA18C2
:10072000FB080C091D09B695A79597958795EE0CC2
:10073000FF1C001F111F6F5F7F4F6F31710531F775
:10074000DA01C9018F779070A070B0708034910584
:10075000A105B10561F427FD0AC0E114F10401050A
:10076000110529F0205C3F4F4F4F5F4F20782D87B8
:100770003E874F87588BBE01675F7F4FCB010E943A
:10078000CF056896EAE00C94F01CA8E1B0E0EBEC31
:10079000F3E00C94D81C69837A838B839C832D832C
:1007A0003E834F83588789E0E82EF12CEC0EFD1E26
:1007B000CE010196B7010E94A4068E010F5E1F4F65
:1007C000CE010596B8010E94A4068985823040F0CA
:1007D0008989823028F0C701B8010E941C0701C036
:1007E0008FEF6896E6E00C94F41CA8E1B0E0EBEF24
:1007F000F3E00C94D81C69837A838B839C832D83CC
:100800003E834F83588789E0E82EF12CEC0EFD1EC5
:10081000CE010196B7010E94A4068E010F5E1F4F04
:10082000CE010596B8010E94A4068985823040F069
:100830008989823028F0C701B8010E941C0701C0D5
:100840008FEF6896E6E00C94F41CA8E1B0E0EBE2D0
:10085000F4E00C94D81C69837A838B839C832D836A
:100860003E834F83588789E0E82EF12CEC0EFD1E65
:10087000CE010196B7010E94A4068E010F5E1F4FA4
:10088000CE010596B8010E94A4068985823040F009
:100890008989823028F0C701B8010E941C0701C075
:1008A00081E06896E6E00C94F41CA8E0B0E0EBE58B
:1008B000F4E00C94D51C9B01AC0183E08983DA0140
:1008C000C9018827B7FD83959927AA27BB27B82E8A
:1008D000211531054105510519F482E089833AC09B
:1008E0008823A9F0203080E0380780E0480780E8BE
:1008F000580729F460E070E080E09FEC30C0EE24FF
:10090000FF248701E21AF30A040B150B02C07901D8
:100910008A018EE1C82ED12CDC82CB82ED82FE8250
:100920000F831887C801B7010E9480050197181628
:10093000190684F4082E04C0EE0CFF1C001F111FC2
:100940000A94D2F7ED82FE820F831887C81AD90A5B
:10095000DC82CB82BA82CE0101960E94CF05289616
:10096000E9E00C94F11CACE0B0E0E9EBF4E00C94AD
:10097000DC1C69837A838B839C83CE010196BE0144
:100980006B5F7F4F0E94A4068D81823061F18230BF
:1009900050F1843021F48E81882351F12EC02F81B3
:1009A000388537FD20C06E812F3131051CF066235C
:1009B000F9F023C08EE190E0821B930B29853A85E4
:1009C0004B855C8504C056954795379527958A9544
:1009D000D2F76623B1F050954095309521953F4F61
:1009E0004F4F5F4F0EC020E030E040E050E009C0C4
:1009F0002FEF3FEF4FEF5FE704C020E030E040E033
:100A000050E8B901CA012C96E2E00C94F81CA8E069
:100A1000B0E0EDE0F5E00C94D41C7B018C01611595
:100A200071058105910519F482E0898360C083E036
:100A300089838EE1C82ED12CDC82CB82ED82FE82AE
:100A40000F831887C801B7010E948005FC01319708
:100A5000F7FF3BC0222733272E1B3F0B57016801AE
:100A6000022E04C0D694C794B794A7940A94D2F7E0
:100A700040E050E060E070E081E090E0A0E0B0E0B5
:100A800004C0880F991FAA1FBB1F2A95D2F7019790
:100A9000A109B1098E219F21A023B1230097A105AF
:100AA000B10521F041E050E060E070E04A295B29A7
:100AB0006C297D294D835E836F8378878EE190E07A
:100AC0008E1B9F0B9C838B8312C0309781F00E2E60
:100AD00004C0EE0CFF1C001F111F0A94D2F7ED8218
:100AE000FE820F831887CE1ADF0ADC82CB821A823D
:100AF000CE0101960E94CF052896EAE00C94F01CE6
:100B0000EF92FF920F931F937B018C0180E0E81618
:100B100080E0F80681E0080780E0180788F48FEF8E
:100B2000E816F1040105110531F028F088E090E0A5
:100B3000A0E0B0E017C080E090E0A0E0B0E012C01C
:100B400080E0E81680E0F80680E0080781E01807FA
:100B500028F088E190E0A0E0B0E004C080E190E0FF
:100B6000A0E0B0E020E230E040E050E0281B390B8C
:100B70004A0B5B0B04C016950795F794E7948A958A
:100B8000D2F7F701E053FF4F8081281B310941095B
:100B90005109C9011F910F91FF90EF900895DF92C5
:100BA000EF92FF920F931F93FC01E480F580068182
:100BB0001781D1808081823048F480E090E0A0E10C
:100BC000B0E0E82AF92A0A2B1B2BA5C0843009F4CF
:100BD0009FC0823021F4EE24FF24870105C0E11478
:100BE000F1040105110519F4E0E0F0E096C062811E
:100BF00073819FEF623879070CF05BC022E83FEF0A
:100C0000261B370B2A3131052CF020E030E040E084
:100C100050E02AC0B801A701022E04C0769567955E
:100C2000579547950A94D2F781E090E0A0E0B0E0B4
:100C300004C0880F991FAA1FBB1F2A95D2F70197DE
:100C4000A109B1098E219F21A023B1230097A105FD
:100C5000B10521F081E090E0A0E0B0E09A01AB01A5
:100C6000282B392B4A2B5B2BDA01C9018F77907027
:100C7000A070B07080349105A105B10539F427FF4B
:100C800009C0205C3F4F4F4F5F4F04C0215C3F4F76
:100C90004F4F5F4FE0E0F0E02030A0E03A07A0E0E7
:100CA0004A07A0E45A0710F0E1E0F0E079018A0178
:100CB00027C06038710564F5FB01E158FF4FD8018A
:100CC000C7018F779070A070B07080349105A10536
:100CD000B10539F4E7FE0DC080E490E0A0E0B0E09B
:100CE00004C08FE390E0A0E0B0E0E80EF91E0A1F18
:100CF0001B1F17FF05C016950795F794E7943196CB
:100D000087E016950795F794E7948A95D1F705C083
:100D1000EE24FF248701EFEFF0E06E2F6795662742
:100D20006795902F9F77D794DD24D7948E2F869543
:100D3000492F462B582F5D29B701CA011F910F91EA
:100D4000FF90EF90DF900895FC01DB01408151811D
:100D50002281622F6F7770E0221F2227221F93814A
:100D6000892F880F822B282F30E0991F9927991FF0
:100D700011969C93119721153105A9F5411551053F
:100D80006105710511F482E037C082E89FEF139688
:100D90009C938E9312979A01AB0167E0220F331F49
:100DA000441F551F6A95D1F783E08C930DC0220F25
:100DB000331F441F551F12968D919C9113970197D5
:100DC00013969C938E931297203080E0380780E032
:100DD000480780E4580758F314962D933D934D939C
:100DE0005C93179708952F3F310579F4411551050C
:100DF0006105710519F484E08C93089564FF03C0C4
:100E000081E08C9312C01C9210C02F573040139673
:100E10003C932E93129783E08C9387E0440F551FE9
:100E2000661F771F8A95D1F7706414964D935D9372
:100E30006D937C93179708951F93DC01FB019C91A0
:100E4000923008F447C08081823008F443C0943067
:100E500051F411961C91843099F58181682F70E0CE
:100E6000611B71093FC0843021F0923031F482302F
:100E7000B9F18181882389F12DC011961C911197B8
:100E80008230F1F081811817D9F412962D913C919E
:100E90001397828193818217930794F0281739075B
:100EA000BCF014968D919D910D90BC91A02D248144
:100EB000358146815781281739074A075B0718F49F
:100EC000112341F00AC082179307A407B50740F425
:100ED000112319F061E070E005C06FEF7FEF02C0F1
:100EE00060E070E0CB011F910895843088F490E0B9
:100EF000FC01A3E0EE0FFF1FAA95E1F7E81BF90B39
:100F0000E45FFD4F5483438372836183368325837B
:100F10000895CF93DF93CDE0D2E08A819B81009743
:100F200029F4EC81FD810995888199810A979B8339
:100F30008A83279682E0C932D80779F7DF91CF916B
:100F4000089589E897E00E94130A0E94BD0A82E092
:100F500090E00E9474096AE070E080E090E00E94F6
:100F6000B209089581B5886081BD0895A895089556
:100F70008330F9F0843028F4813079F08230B0F495
:100F800009C08530F9F08530D0F0863009F187301E
:100F900091F528C081B58E7F02C081B5816081BD89
:100FA00081B58D7F81BD81B58B7F1AC081B58E7F64
:100FB00002C081B5816081BD81B58260F3CF81B50A
:100FC0008E7F02C081B5816081BD81B58D7F05C0F6
:100FD00081B58E7F81BD81B5826081BD81B5846020
:100FE00081BD089581B5816081BD81B5826081BD7B
:100FF00081B5846081BD089580B5806880BD80B56D
:10100000886080BD80B58F7E80BD80B58F7D80BDBE
:1010100080B5826080BD80B5846080BD529880B507
:101020008F7B80BD83E389B9539A549A08955D9B61
:10103000FECF8CB95E9BFECF08955F9BFECF8CB137
:10104000089586E080B986B7806486BF86B78460DD
:1010500086BF0895880F82B986B7806486BF86B739
:10106000846086BF089586B7806286BF86B7806831
:1010700086BF06B607FEFDCF81B1887F8830E1F7D5
:10108000089586B7806186BF86B7806886BF089559
:10109000880F83B9189886B7806886BF06B607FEA2
:1010A000FDCF81B1887F8831E1F70895880F83B93A
:1010B000189A86B7806886BF06B607FEFDCF81B155
:1010C000887F8034E1F7089583B986B7806886BF4A
:1010D00006B607FEFDCF81B1887F8832E1F708951B
:1010E00086B7806886BF06B607FEFDCF81B1887FD0
:1010F0008035E1F783B1089586B7806286BF86B7F1
:10110000806886BF06B607FEFDCF81B1887F80313B
:10111000E1F7089581B1887F883211F1893260F456
:101120008031C1F0813118F4883041F515C0883123
:10113000A9F0803219F51AC08834E1F0893428F416
:101140008033B1F08034D1F40DC0803569F088353A
:10115000A9F412C080E1089588E0089588E1089517
:1011600088E2089580E4089580E5089580E2089576
:1011700080E3089588E4089588E5089580E008955F
:1011800083309105A9F08430910530F481309105C8
:1011900049F00297F9F409C08430910579F0059778
:1011A000C9F40FC085B5816017C085B58E7F02C0B8
:1011B00085B5816085BD85B5826011C085B58E7F9E
:1011C00002C085B5816085BD85B58D7F85BD85B53E
:1011D000846008C085B58E7F85BD85B58D7F85BD52
:1011E00085B58B7F85BD089585B5877F85BD85B520
:1011F0008F7B85BD89B7816089BF0E94BA0B089536
:101200008FB58E7F8FBD8FB582608FBD8EB58860A4
:101210008EBD8EB580618EBD8FB580648FBD8FB55C
:1012200080688FBD0895AF92BF92CF92DF92EF9208
:10123000FF920F931F93E82E66B577B580E090E09C
:101240000E9407055B016C01FF240027F7FC009555
:10125000102FC801B7010E94550420E030E048EC8F
:1012600052EC0E94190320E030E040E85FE30E9466
:10127000F2019B01AC01C601B5010E941F020E9450
:1012800049007BBD6ABD1F910F91FF90EF90DF90E9
:10129000CF90BF90AF900895282F30E086E0220FC6
:1012A000331F8A95E1F7442737FD4095542F60E0BE
:1012B00072E18AE790E00E94AA1C37BD26BD08951E
:1012C0008EB581608EBD8EB582608EBD8EB58B7FF2
:1012D0008EBD08958EB58E7F8EBD8EB58D7F8EBDF1
:1012E0008EB58B7F8EBD089583309105A9F0843033
:1012F000910530F48130910549F00297F9F409C065
:101300008430910579F00597C9F40FC083B78160E7
:1013100017C083B78E7F02C083B7816083BF83B756
:10132000826011C083B78E7F02C083B7816083BFA4
:1013300083B78D7F83BF83B7846008C083B78E7FF8
:1013400083BF83B78D7F83BF83B78B7F83BF0895B0
:1013500083B78E7F83BF83B78D7F83BF83B78B7F38
:1013600083BF0895CF92DF92EF92FF921F9328EEF2
:1013700033E040E050E00E946B1C6B017C010E9456
:10138000070520E030E04FEF51E40E9419030E946E
:1013900049006093E8017093E9018093EA0190931A
:1013A000EB011FEF60E070E08FEF91E40DC0115092
:1013B000612F70E080E090E00E94070520E030E0BF
:1013C00040E05EE30E941F020E9449009B01AC01C5
:1013D000C701B6010E94AA1C61157105810591051E
:1013E00031F71CBF1F91FF90EF90DF90CF900895D1
:1013F000813039F0813058F0823061F483B78F7ECC
:1014000002C083B7806183BF83B7806208C083B79F
:10141000806102C083B78F7E83BF83B78F7D83BF18
:1014200008958CBF0895909329028093280208950F
:101430001F920F920FB60F9211242F933F934F9349
:101440005F936F937F938F939F93AF93BF93EF932C
:10145000FF938091F4019091F501A091F601B09174
:10146000F7010196A11DB11D8093F4019093F50140
:10147000A093F601B093F7012091E8013091E901C2
:101480004091EA015091EB0182179307A407B50739
:10149000A1F4E0912802F091290209958091EC01D4
:1014A00082BF81E090E0A0E0B0E08093F4019093EF
:1014B000F501A093F601B093F701FF91EF91BF9171
:1014C000AF919F918F917F916F915F914F913F91DC
:1014D0002F910F900FBE0F901F9018951F920F9293
:1014E0000FB60F9211242F933F934F935F936F93F7
:1014F0007F938F939F93AF93BF93EF93FF938091CD
:10150000F0019091F101A091F201B091F3010196E7
:10151000A11DB11D8093F0019093F101A093F20100
:10152000B093F3012091E8013091E9014091EA0183
:101530005091EB0182179307A407B50769F4E09176
:101540002802F091290209951092F0011092F10100
:101550001092F2011092F301FF91EF91BF91AF91C0
:101560009F918F917F916F915F914F913F912F91BB
:101570000F900FBE0F901F90189583B7877F83BF82
:1015800083B7806483BF89B7826089BF0E94BA0B2A
:1015900008951F93182F81E064E040E00E94650DDC
:1015A0001FB9779BFECF81E064E041E00E94650DAA
:1015B000779A8FB11F91089581E064E040E00E9426
:1015C000E90C81E065E040E00E94E90C81E066E022
:1015D00041E00E94E90C81E067E040E00E94E90CF4
:1015E0006D9A6B986A9A6C986F9A6E9A689A6998D5
:1015F000089581E065E041E00E94E90C81E066E049
:1016000040E00E94E90C81E067E041E00E94E90CC3
:101610006D9A6B986A9A6C9A6F9A6E9A689A6998A2
:101620000895882319F0813041F404C08EB5806498
:101630008EBD08958EB58F7B8EBD089526B537B5C6
:10164000C9010895FC019B016091F8017091F901B5
:1016500081E090E00E94961C60836091F801709197
:10166000F90180910002909101020E94961C84E68B
:1016700090E0AC01649FC001659F900D749F900D38
:101680001124F901808308951F920F920FB60F92D3
:1016900011241F932F933F934F935F936F937F93E7
:1016A0008F939F93AF93BF93EF93FF931091040297
:1016B000113039F486B597B59093F9018093F8010C
:1016C00032C0123041F486B597B59093FB018093F8
:1016D000FA0181E013C01330A1F486B597B5909359
:1016E000FD018093FC012091FA013091FB01821BE6
:1016F000930B909301028093000280E00E94110BF3
:1017000012C0143081F486B597B59093FF01809391
:10171000FE012091FC013091FD01821B930B9093FF
:101720000302809302021F5F10930402FF91EF9166
:10173000BF91AF919F918F917F916F915F914F91E9
:101740003F912F911F910F900FBE0F901F901895F2
:101750008EB580648EBD89B7806289BF0E94BA0B46
:101760008EB58E7F8EBD8EB582608EBD8EB58B7F21
:101770008EBD08958FB780688FBF08958FB78F771C
:101780008FBF0895833088F4813041F0813018F0A4
:10179000823059F407C08BB7806402C08BB7806871
:1017A0008BBF08958BB780628BBF0895833088F418
:1017B000813041F0813018F0823059F407C08BB786
:1017C0008F7B02C08BB78F778BBF08958BB78F7DD0
:1017D0008BBF0895643008F04EC0662389F48130D1
:1017E00049F0813020F0823009F045C006C085B74D
:1017F0008E7F11C085B78B7F14C084B78F7B17C0D5
:101800006130B9F4813059F0813018F0823099F5A7
:101810000CC085B7816085BF85B7826024C085B75D
:10182000846085BF85B788601EC084B7806484BF2C
:101830000895623071F4882319F08130E1F403C017
:1018400085B781600DC085B7846085BF85B7877F08
:101850000AC0882319F0813071F407C085B78E7FE4
:1018600085BF85B78D7F85BF089585B78B7F85BF81
:1018700085B7877F85BF0895FB018330C0F4813031
:1018800059F0813018F0823091F40CC08AB78295FB
:1018900086958695817004C08AB7881F8827881F1F
:1018A000808308958AB78295869581708083089594
:1018B0009093060280930502089590930802809306
:1018C0000702089590930A028093090208951F92D7
:1018D0000F920FB60F9211242F933F934F935F9364
:1018E0006F937F938F939F93AF93BF93EF93FF93E8
:1018F000E0910702F09108020995FF91EF91BF91E5
:10190000AF919F918F917F916F915F914F913F9197
:101910002F910F900FBE0F901F9018951F920F924E
:101920000FB60F9211242F933F934F935F936F93B2
:101930007F938F939F93AF93BF93EF93FF93E09128
:101940000502F09106020995FF91EF91BF91AF91C9
:101950009F918F917F916F915F914F913F912F91C7
:101960000F900FBE0F901F9018951F920F920FB6F9
:101970000F9211242F933F934F935F936F937F9315
:101980008F939F93AF93BF93EF93FF93E0910902DF
:10199000F0910A020995FF91EF91BF91AF919F914C
:1019A0008F917F916F915F914F913F912F910F9008
:1019B0000FBE0F901F9018958FE38ABB8BE087BBFB
:1019C00014BA8FEF81BB1BBA84E088BB15BA12BA78
:1019D0000895683010F081E008954130B1F581300C
:1019E00099F0813030F08230D1F0833009F06BC053
:1019F00021C02AB381E090E002C0880F991F6A9548
:101A0000E2F7282B2ABB5DC027B381E090E002C03B
:101A1000880F991F6A95E2F7282B27BB52C024B381
:101A200081E090E002C0880F991F6A95E2F7282BA9
:101A300024BB47C021B381E090E002C0880F991F0A
:101A40006A95E2F7282B21BB3CC0442311F084E0C7
:101A50000895813099F0813028F08230D9F08330B8
:101A600091F524C02AB381E090E002C0880F991F4D
:101A70006A95E2F7809582238ABB23C027B381E071
:101A800090E002C0880F991F6A95E2F78095822343
:101A900087BB17C024B381E090E002C0880F991F74
:101AA0006A95E2F78095822384BB0BC021B381E065
:101AB00090E002C0880F991F6A95E2F78095822313
:101AC00081BB80E0089582E00895683010F081E0E5
:101AD00008954130B1F5813099F0813030F0823095
:101AE000D1F0833009F06BC021C02BB381E090E0CE
:101AF00002C0880F991F6A95E2F7282B2BBB5DC0A7
:101B000028B381E090E002C0880F991F6A95E2F740
:101B1000282B28BB52C025B381E090E002C0880F7B
:101B2000991F6A95E2F7282B25BB47C022B381E0B5
:101B300090E002C0880F991F6A95E2F7282B22BB1C
:101B40003CC0442311F083E00895813099F0813046
:101B500028F08230D9F0833091F524C02BB381E096
:101B600090E002C0880F991F6A95E2F78095822362
:101B70008BBB23C028B381E090E002C0880F991F7F
:101B80006A95E2F78095822388BB17C025B381E070
:101B900090E002C0880F991F6A95E2F78095822332
:101BA00085BB0BC022B381E090E002C0880F991F73
:101BB0006A95E2F78095822382BB80E0089582E0F7
:101BC0000895FA011082683010F081E008958130A4
:101BD00051F0813030F0823041F0833089F082E082
:101BE000089589B303C086B301C083B390E002C0F7
:101BF000959587956A95E2F78170808380E00895D6
:101C000080B390E002C0959587956A95E2F7817060
:101C1000808380E00895683010F081E0089581307D
:101C200099F0813030F08230D1F0833021F182E0C0
:101C300008952BB381E090E002C0880F991F6A9548
:101C4000E2F728272BBB15C028B381E090E002C043
:101C5000880F991F6A95E2F7282728BB0AC025B389
:101C600081E090E002C0880F991F6A95E2F728276B
:101C700025BB80E0089522B381E090E002C0880F88
:101C8000991F6A95E2F7282722BB80E008958430E7
:101C900010F085E008956F3F99F0662389F4813054
:101CA00049F0813028F0823039F08330D9F406C011
:101CB0001ABA16C017BA14C014BA12C011BA10C09A
:101CC000813049F0813028F0823039F0833051F48E
:101CD00006C06ABB05C067BB03C064BB01C061BB73
:101CE00080E0089582E00895843010F085E0089542
:101CF000813051F0813030F0823041F0833049F052
:101D000082E008956BBB03C068BB01C065BB80E087
:101D1000089562BB80E00895FB011082843010F0CA
:101D200085E00895813051F0813030F0823041F00B
:101D3000833051F082E0089589B303C086B301C0B7
:101D400083B3808380E0089580B3808380E008952A
:101D5000843010F085E00895813061F0813030F0FA
:101D6000823061F0833079F082E008958BB3809502
:101D70008BBB07C088B3809588BB03C085B38095B3
:101D800085BB80E0089582B3809582BB80E0089592
:101D90003E9A3F9A3D98309A319A32983598379AC0
:101DA000089515B814B88330C1F0843028F4813018
:101DB00071F0823080F409C08530A1F0853080F068
:101DC000863099F08730B1F412C0389801C0389A43
:101DD00039983A980FC0389801C0389A399AF9CF93
:101DE000389801C0389A399804C0389801C0389A98
:101DF000399A3A9A369A349BFECF349A24B135B147
:101E0000C90108950E94D10E28E833E1829FB001F4
:101E1000839F700D929F700D112480E090E00E94CE
:101E2000070520E030E040E85AE30E941F0220E06E
:101E300030E040E251E40E9419030E944900CB01C6
:101E40000895662399F4823051F18330C8F08330CD
:101E500061F18430C9F580E068E00E94740E80E191
:101E600097E20197F1F780E061E027C0613061F50A
:101E70008430C1F0853038F4823071F0833078F4EA
:101E8000813011F5F0CF863099F0863070F08730D0
:101E900091F08830C9F414C080E063E00EC080E0A7
:101EA00062E00BC080E066E008C080E064E005C04E
:101EB00080E06CE002C080E068E00E94740E08954B
:101EC00080E069E00E94740E0895FF920F931F93C3
:101ED000CF93DF93F82E062F11E0C0E1D7E208C0C0
:101EE000CE010197F1F7812F602F0E94210F1F5F14
:101EF000F116B0F7DF91CF911F910F91FF900895E8
:101F00001F93CF93DF9318E0C0E1D7E2812F61E008
:101F10000E94210FCE010197F1F71150B9F7DF911F
:101F2000CF911F9108951F93CF93DF9311E0C0E1EC
:101F3000D7E2812F61E00E94210FCE010197F1F7D6
:101F40001F5F1930B1F7DF91CF911F9108951F9353
:101F5000CF93DF9314E0C0E1D7E2812F60E00E94CD
:101F6000210FCE010197F1F71150B9F7DF91CF9111
:101F70001F9108951F93CF93DF9311E0C0E1D7E243
:101F8000812F60E00E94210FCE010197F1F71F5FC2
:101F90001530B1F7DF91CF911F91089580E060E097
:101FA00040E00E94650D80E061E040E00E94650D28
:101FB00080E062E040E00E94650D80E063E040E088
:101FC0000E94650D089580E06FE00E94470E08951D
:101FD000843029F1853048F48130C1F0813098F0A7
:101FE0008230B9F0833081F517C0873009F188302D
:101FF00028F48530B9F0863039F517C08830D9F02B
:10200000893011F51DC0862F6FE317C0862F66E05B
:1020100014C0862F6BE511C0862F6FE40EC0862F8B
:1020200066E60BC0862F6DE608C0862F6DE705C0FB
:10203000862F67E002C0862F6FE70E94740E089516
:10204000862F6FE60E94740E08959F92AF92BF9202
:10205000CF92DF92EF92FF920F931F93962E7A0109
:102060000E94E80F00E010E0C801B7010E940705D8
:102070005B016C0120E030E04AEF54E40E941F0253
:102080007B018C0120E030E040E85FE30E94250402
:1020900088231CF461E070E024C0C801B70120E08F
:1020A0003FEF4FE757E40E94C5031816B4F4C6018A
:1020B000B50120E030E040E251E40E941F020E949E
:1020C000490088EC90E005C0FC013197F1F76150C0
:1020D000704061157105C1F707C0C801B7010E94C2
:1020E0004900CB010197F1F7892D60E00E94740E41
:1020F000C801B70120E030E040E85FE30E9425041A
:1021000088231CF461E070E024C0C801B70120E01E
:102110003FEF4FE757E40E94C5031816B4F4C60119
:10212000B50120E030E040E251E40E941F020E942D
:10213000490088EC90E005C0FC013197F1F761504F
:10214000704061157105C1F707C0C801B7010E9451
:102150004900CB010197F1F71F910F91FF90EF908C
:10216000DF90CF90BF90AF909F9008953F924F9295
:102170005F926F927F928F929F92AF92BF92CF9217
:10218000DF92EF92FF920F931F93CF93DF93382E3E
:10219000822E6A3008F08CC0962E2A01662477249D
:1021A000C8ECD0E082C084E0981669F1891560F02F
:1021B00081E09816F9F09816D0F082E09816E9F0D0
:1021C00083E0981699F51CC087E0981629F18915C7
:1021D00038F085E09816D1F086E0981639F519C0E8
:1021E00088E09816E1F089E0981601F51BC0882D6B
:1021F0006FE31AC0882D66E017C0882D6BE514C008
:10220000882D6FE411C0882D66E60EC0882D6DE61E
:102210000BC0882D6DE708C0882D67E005C0882DAC
:102220006FE702C0882D6FE60E94740EC301B201F1
:102230000E9407055B016C0120E030E04AEF54E4A6
:102240000E941F027B018C0120E030E040E85FE348
:102250000E94250488231CF461E070E022C0C801BC
:10226000B70120E03FEF4FE757E40E94C50318167F
:10227000A4F4C601B50120E030E040E251E40E9440
:102280001F020E94490005C0CE010197F1F761507D
:10229000704061157105C1F707C0C801B7010E9400
:1022A0004900CB010197F1F79A94931408F07BCF82
:1022B000DF91CF911F910F91FF90EF90DF90CF9022
:1022C000BF90AF909F908F907F906F905F904F9056
:1022D0003F9008953F924F925F926F927F928F92BC
:1022E0009F92AF92BF92CF92DF92EF92FF920F93A5
:1022F0001F93CF93DF93362E822E99E0961708F422
:102300008CC0982E2A0166247724C8ECD0E082C0C5
:1023100084E0981669F1891560F091E09916F9F05A
:102320009916D0F082E09816E9F093E0991699F5A5
:102330001CC087E0981629F1891538F095E09916A8
:10234000D1F086E0981639F519C098E09916E1F0B9
:1023500089E0981601F51BC0882D6FE31AC0882DFF
:1023600066E017C0882D6BE514C0882D6FE411C09E
:10237000882D66E60EC0882D6DE60BC0882D6DE7B2
:1023800008C0882D67E005C0882D6FE702C0882D42
:102390006FE60E94740EC301B2010E9407055B0143
:1023A0006C0120E030E04AEF54E40E941F027B0100
:1023B0008C0120E030E040E85FE30E9425048823A0
:1023C0001CF461E070E022C0C801B70120E03FEFDB
:1023D0004FE757E40E94C5031816A4F4C601B501DF
:1023E00020E030E040E251E40E941F020E944900D8
:1023F00005C0CE010197F1F761507040611571057C
:10240000C1F707C0C801B7010E944900CB0101977D
:10241000F1F79394391408F07BCFDF91CF911F919E
:102420000F91FF90EF90DF90CF90BF90AF909F9073
:102430008F907F906F905F904F903F9008956FEFD7
:102440000E94470E08950E940B0E089540E00E94DE
:10245000650D089541E00E94650D089541E00E94D8
:10246000E90C08950E94D10EA0E0B0E0BC01CD01BE
:1024700028E833E140E050E00E946B1C2FEF33E08E
:1024800040E050E00E94AA1CC90108950E94321247
:102490009C0143E0893E940710F480E00895895E32
:1024A0009340885E934010F481E00895C901815DF6
:1024B0009740885E934010F482E00895C901895BDB
:1024C0009B40885E934010F483E00895215A3F407A
:1024D000285E334010F085E0089584E008951F934E
:1024E000182F80E060E040E00E94650D80E061E030
:1024F00040E00E94650D83E0612F0E94740E80E031
:1025000062E041E00E94650D80ED97E00197F1F7F0
:1025100080E062E040E00E94650D80E197E2019773
:10252000F1F71F910895813160F4613019F0623044
:1025300041F404C080580E946F12089581540E9493
:102540006F1208951F93182F80E060E041E00E9411
:10255000650D80E061E040E00E94650D83E0612F41
:102560000E94740E80E062E041E00E94650D80ED03
:1025700097E00197F1F780E062E040E00E94650D8E
:1025800080E197E20197F1F71F9108952F923F9212
:102590004F925F926F927F928F929F92AF92BF9273
:1025A000CF92DF92EF92FF920F931F93DF93CF931F
:1025B000CDB7DEB766970FB6F894DEBF0FBECDBFBE
:1025C0004B015C0120E030E040E050E00E94250437
:1025D00087FD07C0C501B4010E9449002B013C01E1
:1025E0000DC0B7FAB094B7F8B094C501B4010E9419
:1025F00049002B013C018DE20E94A212CE010196FE
:102600009E8B8D8B8AE0ED89FE8911928A95E9F780
:10261000830172011E010894211C311C17C0C801DE
:10262000B7012AE030E040E050E00E94AA1CF1012E
:1026300061931F01C801B7012AE030E040E050E09B
:102640000E94AA1CC901DA017C018D01D22CFD89EE
:10265000DF1AE114F1040105110509F7DA948D2D53
:10266000992787FD9095D3948E010F5F1F4F080F18
:10267000191F7801ED18F10807C0F8018081805D0D
:102680000E94A21201501040CD2C0E151F05A9F773
:102690008BE0282E312C2C0E3D1E8AE0F101119288
:1026A0008A95E9F7C501B40120E030E040E85FE336
:1026B0000E94F2017B018C01C301B2010E94070557
:1026C0009B01AC01C801B7010E94C10120E836E9B5
:1026D00048E15BE40E941F020E9449007B018C01DB
:1026E0008EE20E94A2124101510117C0C801B70138
:1026F0002AE030E040E050E00E94AA1CF50161931E
:102700005F01C801B7012AE030E040E050E00E94DC
:10271000AA1CC901DA017C018D019A2D9219E114DC
:10272000F1040105110511F74BE69E012B5E3F4FA9
:10273000F4018081882359F092508E01055F1F4F6C
:10274000892F992787FD9095080F191F0BC0F40159
:1027500041934F01E217F30759F7EECF805D0E94D6
:10276000A212C394F80180818B3629F001501040E9
:10277000F7E0CF1699F766960FB6F894DEBF0FBE56
:10278000CDBFCF91DF911F910F91FF90EF90DF9020
:10279000CF90BF90AF909F908F907F906F905F9001
:1027A0004F903F902F900895EF92FF920F931F93B9
:1027B0007B018C018AE0E816F1040105110510F493
:1027C0008E2D72C084E6E816F1040105110550F45F
:1027D000C801B7012AE030E040E050E00E94AA1CA6
:1027E000822F56C088EEE81683E0F80680E00807DE
:1027F00080E01807D0F4C801B70124E630E040E0DB
:1028000050E00E94AA1C822F805D0E94A212C80183
:10281000B7012AE030E040E050E00E94AA1C822F7D
:102820006AE00E948A1C892F33C080E1E81687E2A3
:10283000F80680E0080780E01807C8F5C801B7016E
:1028400028EE33E040E050E00E94AA1C822F805D19
:102850000E94A212C801B70124E630E040E050E037
:102860000E94AA1C822F6AE00E948A1C892F805D28
:102870000E94A212C801B7012AE030E040E050E017
:102880000E94AA1CDA01C9016AE070E00E94961C4D
:10289000805D0E94A212C801B7012AE030E040E04A
:1028A00050E00E94AA1C862F805D0E94A2121F91F8
:1028B0000F91FF90EF900895EF92FF920F931F9367
:1028C000CF93DF938C01F62EE42E80E40E946F12EA
:1028D000C0E0D0E0F801EC0FFD1F80810E94A21241
:1028E0002196C031D105B1F78F2D6E2D0E94931224
:1028F00080E00E94A212DF91CF911F910F91FF9073
:10290000EF9008951F93CF93DF93EC0110E003C085
:102910001F5F0E94A212FE01E10FF11D808188233A
:10292000B9F7DF91CF911F9108950F931F930E94E4
:10293000DC0C8EE591E028EC30E0F9013197F1F7FD
:102940000197D9F788E30E946F1200ED17E0C801E4
:102950000197F1F78CE00E946F12C8010197F1F71F
:1029600081E00E946F1280E29EE40197F1F786E019
:102970000E946F12C8010197F1F71F910F910895FE
:102980006F927F929F92AF92BF92CF92DF92EF921F
:10299000FF920F931F93DF93CF930F92CDB7DEB7C4
:1029A00081E089839924EE24FF245E010894A11C10
:1029B000B11C90E4692E9CE9792E84E0C82ECE0CDF
:1029C00082E06C2D40E00E94650D870100531E4F90
:1029D000DD2482E06D2DA5010E94E10D898188230F
:1029E00071F4F8019080C3010197F1F705C082E00E
:1029F0006D2DA5010E94E10D89818823C1F3D39437
:102A00000C5F1F4FF4E0DF1621F782E06C2D41E0F0
:102A10000E94650D0894E11CF11C84E0E816F104A5
:102A200061F6892D0F90CF91DF911F910F91FF904B
:102A3000EF90DF90CF90BF90AF909F907F906F907E
:102A4000089582E060EF0E94470E82E06FEF0E94DF
:102A5000740E08950F931F93162F082F03700065AF
:102A60000E943308802F0E944808812F0E9464082A
:102A70000E943308802F0E945608812F0E9464080C
:102A80000E947008182F0E944108812F1F910F91FA
:102A90000895FF920F931F93182F062FF42E0E9474
:102AA00033081370812F80650E944808802F0E9490
:102AB00064088F2D0E9464080E9441081F910F91A5
:102AC000FF90089581E060E040E00E94650D81E0A4
:102AD00061E040E00E94650D80E0089581E060E0E3
:102AE00040E00E94650D81E061E041E00E94650DDB
:102AF00080E0089581E060E041E00E94650D81E0A2
:102B000061E040E00E94650D80E0089581E060E0B2
:102B100041E00E94E90C81E061E041E00E94E90CA3
:102B200080E00895FF920F931F938C01FF24F3948C
:102B3000FC01F08281E062E00E9493128EE40E9428
:102B4000A212F80180818F5F808361E00E9493125E
:102B500081E40E94A212F80180818E5F808362E08E
:102B60000E94931284E40E94A212F80180818F5F78
:102B7000808361E00E94931281E40E94A212F80116
:102B8000F08288E893E128EC30E0F9013197F1F721
:102B90000197D9F71F910F91FF900895FF920F931E
:102BA0001F93CF93DF93F42E8901A9010E94E10DB9
:102BB000F8018081813009F0EAC0C0E0D0E008EC83
:102BC00010E0C130D10521F1C230D1051CF42097AD
:102BD00049F061C0C230D10589F1C330D10509F097
:102BE0005AC042C08F2D64E00E942A128F2D63E0EC
:102BF0000E942A1284EC99E0F8013197F1F70197CD
:102C0000D9F78F2D64E00E9426128F2D63E041C01A
:102C10008F2D65E00E942A128F2D62E00E942A12F9
:102C200084EC99E0F8013197F1F70197D9F78F2DEE
:102C300065E00E9426128F2D62E02BC08F2D66E08A
:102C40000E942A128F2D61E00E942A1284EC99E0E2
:102C5000F8013197F1F70197D9F78F2D66E00E94BF
:102C600026128F2D61E015C08F2D67E00E942A1279
:102C70008F2D60E00E942A1284EC99E0F8013197D0
:102C8000F1F70197D9F78F2D67E00E9426128F2D5B
:102C900060E00E9426122196C430D10509F091CF40
:102CA0008F2D60E00E94740EC0E0D0E008EC10E0D0
:102CB000C130D10521F1C230D1051CF4209749F073
:102CC00061C0C230D10589F1C330D10509F05AC0C5
:102CD00042C08F2D67E00E942A128F2D60E00E9473
:102CE0002A1284EC99E0F8013197F1F70197D9F7AE
:102CF0008F2D67E00E9426128F2D60E041C08F2D3E
:102D000066E00E942A128F2D61E00E942A1284EC54
:102D100099E0F8013197F1F70197D9F78F2D66E027
:102D20000E9426128F2D61E02BC08F2D65E00E943E
:102D30002A128F2D62E00E942A1284EC99E0F80199
:102D40003197F1F70197D9F78F2D65E00E94261290
:102D50008F2D62E015C08F2D64E00E942A128F2D06
:102D600063E00E942A1284EC99E0F8013197F1F7B0
:102D70000197D9F78F2D64E00E9426128F2D63E012
:102D80000E9426122196C430D10509F091CF8F2DD3
:102D900060E00E94740EDF91CF911F910F91FF9020
:102DA0000895FF920F931F93CF93DF93F42E890121
:102DB000A9010E94E10DF8018081813009F091C0E4
:102DC000C0E0D0E008EC10E0C330D10509F443C006
:102DD000C430D1054CF4C130D10529F1C230D10540
:102DE00074F52097A1F010C0C530D10509F44BC08F
:102DF000C530D1050CF43BC0C630D10509F44FC035
:102E0000C730D10509F457C088EB9BE060C08F2D17
:102E100060E00E942A1288EB9BE0F8013197F1F7FD
:102E20000197D9F7F1CF8F2D61E00E942A1288EB2C
:102E30009BE0F8013197F1F70197D9F7E5CF8F2D96
:102E400062E00E942A1288EB9BE0F8013197F1F7CB
:102E50000197D9F7D9CF8F2D63E00E942A1288EB12
:102E60009BE0F8013197F1F70197D9F7CDCF8F2D7E
:102E700064E00E942A1288EB9BE0F8013197F1F799
:102E80000197D9F7C1CF8F2D65E00E942A1288EBF8
:102E90009BE0F8013197F1F70197D9F7B5CF8F2D66
:102EA00066E00E942A1288EB9BE0F8013197F1F767
:102EB0000197D9F7A9CF8F2D67E00E942A1288EBDE
:102EC0009BE0F8013197F1F70197D9F79DCFF80111
:102ED0003197F1F70197D9F72196C830D10509F05C
:102EE00073CF8F2D60E00E94740EDF91CF911F9100
:102EF0000F91FF900895FF920F931F93CF93DF934D
:102F0000F42E8901A9010E94E10DF8018081813030
:102F100009F0A3C0C0E0D0E008EC10E0C330D10558
:102F200009F447C0C430D1054CF4C130D10529F1B2
:102F3000C230D10584F5209791F082C0C530D1050B
:102F400009F453C0C530D1050CF441C0C630D105D9
:102F500009F459C0C730D10509F072C062C08F2D85
:102F600060E00E942A1284EC99E0F8013197F1F7B1
:102F70000197D9F78F2D60E061C08F2D67E00E9427
:102F80002A1284EC99E0F8013197F1F70197D9F70B
:102F90008F2D67E053C08F2D61E00E942A1284ECD0
:102FA00099E0F8013197F1F70197D9F78F2D61E09A
:102FB00045C08F2D66E00E942A1284EC99E0F8014A
:102FC0003197F1F70197D9F78F2D66E037C08F2D34
:102FD00062E00E942A1284EC99E0F8013197F1F73F
:102FE0000197D9F78F2D62E029C08F2D65E00E94EF
:102FF0002A1284EC99E0F8013197F1F70197D9F79B
:103000008F2D65E01BC08F2D63E00E942A1284EC97
:1030100099E0F8013197F1F70197D9F78F2D63E027
:103020000DC08F2D64E00E942A1284EC99E0F80113
:103030003197F1F70197D9F78F2D64E00E9426129E
:1030400084EC99E0F8013197F1F70197D9F72196CF
:10305000C830D10509F062CF04C08F2D60E00E9416
:10306000740EDF91CF911F910F91FF900895FF9201
:103070000F931F93CF93DF93F42E8901A9010E9430
:10308000E10DF8018081813009F074C0C0E0D0E02A
:1030900008EC10E0C130D10521F1C230D1051CF49B
:1030A000209749F061C0C230D10589F1C330D10504
:1030B00009F05AC042C08F2D64E00E942A128F2D61
:1030C00063E00E942A1284EC99E0F8013197F1F74D
:1030D0000197D9F78F2D64E00E9426128F2D63E0AF
:1030E00041C08F2D65E00E942A128F2D62E00E9460
:1030F0002A1284EC99E0F8013197F1F70197D9F79A
:103100008F2D65E00E9426128F2D62E02BC08F2D3F
:1031100066E00E942A128F2D61E00E942A1284EC40
:1031200099E0F8013197F1F70197D9F78F2D66E013
:103130000E9426128F2D61E015C08F2D67E00E943E
:103140002A128F2D60E00E942A1284EC99E0F80187
:103150003197F1F70197D9F78F2D67E00E9426127A
:103160008F2D60E00E9426122196C430D10509F00F
:1031700091CF04C08F2D60E00E94740EDF91CF913B
:103180001F910F91FF900895FF920F931F93CF937C
:10319000DF93F42E8901A9010E94E10DF8018081DD
:1031A000813009F074C0C0E0D0E008EC10E0C1301C
:1031B000D10521F1C230D1051CF4209749F061C03E
:1031C000C230D10589F1C330D10509F05AC042C0DF
:1031D0008F2D67E00E942A128F2D60E00E942A1234
:1031E00084EC99E0F8013197F1F70197D9F78F2D29
:1031F00067E00E9426128F2D60E041C08F2D66E0AF
:103200000E942A128F2D61E00E942A1284EC99E01C
:10321000F8013197F1F70197D9F78F2D66E00E94F9
:1032200026128F2D61E02BC08F2D65E00E942A129F
:103230008F2D62E00E942A1284EC99E0F801319708
:10324000F1F70197D9F78F2D65E00E9426128F2D97
:1032500062E015C08F2D64E00E942A128F2D63E07A
:103260000E942A1284EC99E0F8013197F1F7019756
:10327000D9F78F2D64E00E9426128F2D63E00E9403
:1032800026122196C430D10509F091CF04C08F2DAC
:1032900060E00E94740EDF91CF911F910F91FF901B
:1032A0000895FF920F931F93CF93DF93F42E89011C
:1032B000A9010E94E10DF8018081813009F0A4C0CC
:1032C000C7E0D0E008EC10E0C330D10509F447C0F6
:1032D000C430D1054CF4C130D10529F1C230D1053B
:1032E00084F5209791F082C0C530D10509F453C010
:1032F000C530D1050CF441C0C630D10509F459C020
:10330000C730D10509F072C062C08F2D60E00E9405
:103310002A1284EC99E0F8013197F1F70197D9F777
:103320008F2D60E061C08F2D61E00E942A1284EC35
:1033300099E0F8013197F1F70197D9F78F2D61E006
:1033400053C08F2D62E00E942A1284EC99E0F801AC
:103350003197F1F70197D9F78F2D62E045C08F2D96
:1033600063E00E942A1284EC99E0F8013197F1F7AA
:103370000197D9F78F2D63E037C08F2D64E00E944D
:103380002A1284EC99E0F8013197F1F70197D9F707
:103390008F2D64E029C08F2D65E00E942A1284ECF5
:1033A00099E0F8013197F1F70197D9F78F2D65E092
:1033B0001BC08F2D66E00E942A1284EC99E0F80170
:1033C0003197F1F70197D9F78F2D66E00DC08F2D5A
:1033D00067E00E942A1284EC99E0F8013197F1F736
:1033E0000197D9F78F2D67E00E94261284EC99E0AF
:1033F000F8013197F1F70197D9F72197FFEFCF3F08
:10340000DF0709F061CF04C08F2D60E00E94740EC9
:10341000DF91CF911F910F91FF900895FF920F932D
:103420001F93CF93DF93F42E8901A9010E94E10D30
:10343000F8018081813009F0A3C0C0E0D0E008EC41
:1034400010E0C330D10509F447C0C430D1054CF4B5
:10345000C130D10529F1C230D10584F5209791F012
:1034600082C0C530D10509F453C0C530D1050CF474
:1034700041C0C630D10509F459C0C730D10509F0A3
:1034800072C062C08F2D60E00E942A1284EC99E025
:10349000F8013197F1F70197D9F78F2D60E061C0FE
:1034A0008F2D61E00E942A1284EC99E0F801319797
:1034B000F1F70197D9F78F2D61E053C08F2D62E0AE
:1034C0000E942A1284EC99E0F8013197F1F70197F4
:1034D000D9F78F2D62E045C08F2D63E00E942A123C
:1034E00084EC99E0F8013197F1F70197D9F78F2D26
:1034F00063E037C08F2D64E00E942A1284EC99E0CB
:10350000F8013197F1F70197D9F78F2D64E029C0C1
:103510008F2D65E00E942A1284EC99E0F801319722
:10352000F1F70197D9F78F2D65E01BC08F2D66E06D
:103530000E942A1284EC99E0F8013197F1F7019783
:10354000D9F78F2D66E00DC08F2D67E00E942A12FB
:1035500084EC99E0F8013197F1F70197D9F78F2DB5
:1035600067E00E94261284EC99E0F8013197F1F7A8
:103570000197D9F72196C830D10509F062CF04C070
:103580008F2D60E00E94740EDF91CF911F910F91FB
:10359000FF900895EF92FF920F931F93F42EE22E67
:1035A000A8010E94E10DF80180818130D9F48F2DAE
:1035B0006E2D0E942A1288E893E128EC30E0F90190
:1035C0003197F1F70197D9F78F2D6E2D0E942612B2
:1035D00088E893E128EC30E0F9013197F1F70197A1
:1035E000D9F704C08F2D60E00E94740E1F910F91D7
:1035F000FF90EF900895DF93CF93CDB7DEB7699733
:103600000FB6F894DEBF0FBECDBFDE011196E0E627
:10361000F0E08AE001900D928150E1F7DE011B9607
:10362000EAE6F0E08FE001900D928150E1F781E051
:103630000E946F12CE0101960E9482140E947A1598
:1036400080E395E728EC30E0F9013197F1F7019735
:10365000D9F781E00E946F12CE010B960E9482146E
:103660000E946E1580E395E728EC30E0F901319770
:10367000F1F70197D9F769960FB6F894DEBF0FBE40
:10368000CDBFCF91DF91089581E062E00E94931257
:1036900089E790E00E94821487E00E9446128230FF
:1036A00029F1833038F4882309F462C0813009F0AD
:1036B0005FC006C0833081F1843009F059C042C038
:1036C00081E060E041E00E94650D80E065E040E05F
:1036D0000E94650D80E064E040E00E94650D80E09E
:1036E00063E040E00E94650D61E057C081E060E06A
:1036F00041E00E94650D80E065E041E00E94650DBB
:1037000080E064E040E00E94650D80E063E040E01E
:103710000E94650D62E041C081E060E041E00E94EE
:10372000650D80E065E041E00E94650D80E064E0A9
:1037300041E00E94650D80E063E040E00E94650D7D
:1037400063E02BC081E060E041E00E94650D80E015
:1037500065E041E00E94650D80E064E041E00E9488
:10376000650D80E063E041E00E94650D64E015C0F6
:1037700081E060E040E00E94650D80E065E040E0AF
:103780000E94650D80E064E040E00E94650D80E0ED
:1037900063E040E00E94650D60E070E080E090E052
:1037A0000E94D4138FE790E00E94821408950F9333
:1037B0001F9380E061E00E94931288E890E00E94ED
:1037C000821486E00E94020F8C0181E065E00E9475
:1037D0009312B80180E090E00E94D41381E069E088
:1037E0000E9493128EE890E00E94821481E06FE0C4
:1037F0000E9493120931110518F084E990E002C08B
:1038000087E990E00E9482148BE990E00E94821484
:103810001F910F9108951F9381E00E946F1280E025
:1038200061E00E9493128FE990E00E94821481E08F
:1038300062E00E9493128CEA90E00E94821480E47D
:103840009CE90197F1F70E94C014182F81E062E013
:103850000E9493121BC00E94C014182F8823B1F03D
:103860008133A1F481E00E946F1280E061E00E9448
:10387000931286EB90E00E94821481E062E00E9445
:1038800093120E94C0140E94A212E5CF1D3319F7B3
:103890001F9108950E94DC0C0E94BA0B82E00E94E6
:1038A000C20B82E060E00E94EA0B8BE09CE10E9488
:1038B000620C0E9495140E9421150E94C80E81E09E
:1038C0000E946F1280E061E00E9493120E94D71B59
:1038D0000E94441BFBCF629FD001739FF001829F27
:1038E000E00DF11D649FE00DF11D929FF00D839F8F
:1038F000F00D749FF00D659FF00D9927729FB00D2C
:10390000E11DF91F639FB00DE11DF91FBD01CF013E
:1039100011240895991B79E004C0991F961708F0A7
:10392000961B881F7A95C9F780950895AA1BBB1B23
:1039300051E107C0AA1FBB1FA617B70710F0A61BAF
:10394000B70B881F991F5A95A9F780959095BC01D0
:10395000CD010895A1E21A2EAA1BBB1BFD010DC0CB
:10396000AA1FBB1FEE1FFF1FA217B307E407F5072F
:1039700020F0A21BB30BE40BF50B661F771F881F0B
:10398000991F1A9469F760957095809590959B01A1
:10399000AC01BD01CF0108952F923F924F925F92EB
:1039A0006F927F928F929F92AF92BF92CF92DF924F
:1039B000EF92FF920F931F93CF93DF93CDB7DEB7B4
:1039C000CA1BDB0B0FB6F894DEBF0FBECDBF099448
:1039D0002A88398848885F846E847D848C849B849F
:1039E000AA84B984C884DF80EE80FD800C811B81AD
:1039F000AA81B981CE0FD11D0FB6F894DEBF0FBEDC
:0A3A0000CDBFED010895F894FFCF4B
:103A0A00436C6F636B7769736500416E74692D430C
:103A1A006C6F636B77697365004C44523A200020DF
:103A2A004C6967687473200054656D703A002046CB
:103A3A00616E3A004F4E004F46460020202000316A
:103A4A002D50617373776F72643A2000322D4C6F78
:103A5A0067696E3A2000456E74657220796F7572D7
:103A6A0020706173733A200000000000000000001B
:103A7A00000102020303030304040404040404040B
:103A8A0005050505050505050505050505050505DC
:103A9A0006060606060606060606060606060606BC
:103AAA0006060606060606060606060606060606AC
:103ABA00070707070707070707070707070707078C
:103ACA00070707070707070707070707070707077C
:103ADA00070707070707070707070707070707076C
:103AEA00070707070707070707070707070707075C
:103AFA00080808080808080808080808080808083C
:103B0A00080808080808080808080808080808082B
:103B1A00080808080808080808080808080808081B
:103B2A00080808080808080808080808080808080B
:103B3A0008080808080808080808080808080808FB
:103B4A0008080808080808080808080808080808EB
:103B5A0008080808080808080808080808080808DB
:103B6A0008080808080808080808080808080808CB
:103B7A003738392F3435362A3132332D43303D2BFD
:00000001FF
